{
  "_format": "hh-sol-artifact-1",
  "contractName": "PantheonCouncil",
  "sourceName": "contracts/PantheonCouncil.sol",
  "abi": [
    {
      "anonymous": false,
      "inputs": [
        {
          "indexed": true,
          "internalType": "uint256",
          "name": "id",
          "type": "uint256"
        },
        {
          "indexed": false,
          "internalType": "uint256",
          "name": "timestamp",
          "type": "uint256"
        },
        {
          "indexed": false,
          "internalType": "string",
          "name": "symbol",
          "type": "string"
        },
        {
          "indexed": false,
          "internalType": "string",
          "name": "consensus",
          "type": "string"
        },
        {
          "indexed": false,
          "internalType": "uint256",
          "name": "finalConfidence",
          "type": "uint256"
        },
        {
          "indexed": true,
          "internalType": "address",
          "name": "recorder",
          "type": "address"
        }
      ],
      "name": "DebateRecorded",
      "type": "event"
    },
    {
      "inputs": [
        {
          "internalType": "uint256",
          "name": "",
          "type": "uint256"
        }
      ],
      "name": "debates",
      "outputs": [
        {
          "internalType": "uint256",
          "name": "id",
          "type": "uint256"
        },
        {
          "internalType": "uint256",
          "name": "timestamp",
          "type": "uint256"
        },
        {
          "internalType": "string",
          "name": "symbol",
          "type": "string"
        },
        {
          "internalType": "string",
          "name": "analystView",
          "type": "string"
        },
        {
          "internalType": "string",
          "name": "skepticView",
          "type": "string"
        },
        {
          "internalType": "string",
          "name": "degenView",
          "type": "string"
        },
        {
          "internalType": "string",
          "name": "consensus",
          "type": "string"
        },
        {
          "internalType": "uint256",
          "name": "finalConfidence",
          "type": "uint256"
        },
        {
          "internalType": "address",
          "name": "recorder",
          "type": "address"
        }
      ],
      "stateMutability": "view",
      "type": "function"
    },
    {
      "inputs": [],
      "name": "getAllDebates",
      "outputs": [
        {
          "components": [
            {
              "internalType": "uint256",
              "name": "id",
              "type": "uint256"
            },
            {
              "internalType": "uint256",
              "name": "timestamp",
              "type": "uint256"
            },
            {
              "internalType": "string",
              "name": "symbol",
              "type": "string"
            },
            {
              "internalType": "string",
              "name": "analystView",
              "type": "string"
            },
            {
              "internalType": "string",
              "name": "skepticView",
              "type": "string"
            },
            {
              "internalType": "string",
              "name": "degenView",
              "type": "string"
            },
            {
              "internalType": "string",
              "name": "consensus",
              "type": "string"
            },
            {
              "internalType": "uint256",
              "name": "finalConfidence",
              "type": "uint256"
            },
            {
              "internalType": "address",
              "name": "recorder",
              "type": "address"
            }
          ],
          "internalType": "struct PantheonCouncil.Debate[]",
          "name": "",
          "type": "tuple[]"
        }
      ],
      "stateMutability": "view",
      "type": "function"
    },
    {
      "inputs": [
        {
          "internalType": "uint256",
          "name": "debateId",
          "type": "uint256"
        }
      ],
      "name": "getDebate",
      "outputs": [
        {
          "components": [
            {
              "internalType": "uint256",
              "name": "id",
              "type": "uint256"
            },
            {
              "internalType": "uint256",
              "name": "timestamp",
              "type": "uint256"
            },
            {
              "internalType": "string",
              "name": "symbol",
              "type": "string"
            },
            {
              "internalType": "string",
              "name": "analystView",
              "type": "string"
            },
            {
              "internalType": "string",
              "name": "skepticView",
              "type": "string"
            },
            {
              "internalType": "string",
              "name": "degenView",
              "type": "string"
            },
            {
              "internalType": "string",
              "name": "consensus",
              "type": "string"
            },
            {
              "internalType": "uint256",
              "name": "finalConfidence",
              "type": "uint256"
            },
            {
              "internalType": "address",
              "name": "recorder",
              "type": "address"
            }
          ],
          "internalType": "struct PantheonCouncil.Debate",
          "name": "",
          "type": "tuple"
        }
      ],
      "stateMutability": "view",
      "type": "function"
    },
    {
      "inputs": [],
      "name": "getLatestDebate",
      "outputs": [
        {
          "components": [
            {
              "internalType": "uint256",
              "name": "id",
              "type": "uint256"
            },
            {
              "internalType": "uint256",
              "name": "timestamp",
              "type": "uint256"
            },
            {
              "internalType": "string",
              "name": "symbol",
              "type": "string"
            },
            {
              "internalType": "string",
              "name": "analystView",
              "type": "string"
            },
            {
              "internalType": "string",
              "name": "skepticView",
              "type": "string"
            },
            {
              "internalType": "string",
              "name": "degenView",
              "type": "string"
            },
            {
              "internalType": "string",
              "name": "consensus",
              "type": "string"
            },
            {
              "internalType": "uint256",
              "name": "finalConfidence",
              "type": "uint256"
            },
            {
              "internalType": "address",
              "name": "recorder",
              "type": "address"
            }
          ],
          "internalType": "struct PantheonCouncil.Debate",
          "name": "",
          "type": "tuple"
        }
      ],
      "stateMutability": "view",
      "type": "function"
    },
    {
      "inputs": [
        {
          "internalType": "uint256",
          "name": "count",
          "type": "uint256"
        }
      ],
      "name": "getRecentDebates",
      "outputs": [
        {
          "components": [
            {
              "internalType": "uint256",
              "name": "id",
              "type": "uint256"
            },
            {
              "internalType": "uint256",
              "name": "timestamp",
              "type": "uint256"
            },
            {
              "internalType": "string",
              "name": "symbol",
              "type": "string"
            },
            {
              "internalType": "string",
              "name": "analystView",
              "type": "string"
            },
            {
              "internalType": "string",
              "name": "skepticView",
              "type": "string"
            },
            {
              "internalType": "string",
              "name": "degenView",
              "type": "string"
            },
            {
              "internalType": "string",
              "name": "consensus",
              "type": "string"
            },
            {
              "internalType": "uint256",
              "name": "finalConfidence",
              "type": "uint256"
            },
            {
              "internalType": "address",
              "name": "recorder",
              "type": "address"
            }
          ],
          "internalType": "struct PantheonCouncil.Debate[]",
          "name": "",
          "type": "tuple[]"
        }
      ],
      "stateMutability": "view",
      "type": "function"
    },
    {
      "inputs": [],
      "name": "getTotalDebates",
      "outputs": [
        {
          "internalType": "uint256",
          "name": "",
          "type": "uint256"
        }
      ],
      "stateMutability": "view",
      "type": "function"
    },
    {
      "inputs": [
        {
          "internalType": "string",
          "name": "symbol",
          "type": "string"
        },
        {
          "internalType": "string",
          "name": "analystView",
          "type": "string"
        },
        {
          "internalType": "string",
          "name": "skepticView",
          "type": "string"
        },
        {
          "internalType": "string",
          "name": "degenView",
          "type": "string"
        },
        {
          "internalType": "string",
          "name": "consensus",
          "type": "string"
        },
        {
          "internalType": "uint256",
          "name": "finalConfidence",
          "type": "uint256"
        }
      ],
      "name": "recordDebate",
      "outputs": [],
      "stateMutability": "nonpayable",
      "type": "function"
    }
  ],
  "bytecode": "0x608060405234801561001057600080fd5b5061285c806100206000396000f3fe608060405234801561001057600080fd5b506004361061007d5760003560e01c80636c9e83ac1161005b5780636c9e83ac146100f6578063733305301461011257806398d336af14610142578063f704a913146101725761007d565b80630773f250146100825780633461f164146100a057806359758fcf146100be575b600080fd5b61008a610190565b6040516100979190611a46565b60405180910390f35b6100a8610571565b6040516100b59190611a77565b60405180910390f35b6100d860048036038101906100d39190611ad2565b61057d565b6040516100ed99989796959493929190611b58565b60405180910390f35b610110600480360381019061010b9190611d3d565b6108a3565b005b61012c60048036038101906101279190611ad2565b610c0e565b6040516101399190611ff9565b60405180910390f35b61015c60048036038101906101579190611ad2565b611099565b6040516101699190611a46565b60405180910390f35b61017a61146b565b6040516101879190611ff9565b60405180910390f35b610198611819565b60008080549050116101df576040517f08c379a00000000000000000000000000000000000000000000000000000000081526004016101d690612067565b60405180910390fd5b600060016000805490506101f391906120b6565b81548110610204576102036120ea565b5b906000526020600020906009020160405180610120016040529081600082015481526020016001820154815260200160028201805461024290612148565b80601f016020809104026020016040519081016040528092919081815260200182805461026e90612148565b80156102bb5780601f10610290576101008083540402835291602001916102bb565b820191906000526020600020905b81548152906001019060200180831161029e57829003601f168201915b505050505081526020016003820180546102d490612148565b80601f016020809104026020016040519081016040528092919081815260200182805461030090612148565b801561034d5780601f106103225761010080835404028352916020019161034d565b820191906000526020600020905b81548152906001019060200180831161033057829003601f168201915b5050505050815260200160048201805461036690612148565b80601f016020809104026020016040519081016040528092919081815260200182805461039290612148565b80156103df5780601f106103b4576101008083540402835291602001916103df565b820191906000526020600020905b8154815290600101906020018083116103c257829003601f168201915b505050505081526020016005820180546103f890612148565b80601f016020809104026020016040519081016040528092919081815260200182805461042490612148565b80156104715780601f1061044657610100808354040283529160200191610471565b820191906000526020600020905b81548152906001019060200180831161045457829003601f168201915b5050505050815260200160068201805461048a90612148565b80601f01602080910402602001604051908101604052809291908181526020018280546104b690612148565b80156105035780601f106104d857610100808354040283529160200191610503565b820191906000526020600020905b8154815290600101906020018083116104e657829003601f168201915b50505050508152602001600782015481526020016008820160009054906101000a900473ffffffffffffffffffffffffffffffffffffffff1673ffffffffffffffffffffffffffffffffffffffff1673ffffffffffffffffffffffffffffffffffffffff1681525050905090565b60008080549050905090565b6000818154811061058d57600080fd5b90600052602060002090600902016000915090508060000154908060010154908060020180546105bc90612148565b80601f01602080910402602001604051908101604052809291908181526020018280546105e890612148565b80156106355780601f1061060a57610100808354040283529160200191610635565b820191906000526020600020905b81548152906001019060200180831161061857829003601f168201915b50505050509080600301805461064a90612148565b80601f016020809104026020016040519081016040528092919081815260200182805461067690612148565b80156106c35780601f10610698576101008083540402835291602001916106c3565b820191906000526020600020905b8154815290600101906020018083116106a657829003601f168201915b5050505050908060040180546106d890612148565b80601f016020809104026020016040519081016040528092919081815260200182805461070490612148565b80156107515780601f1061072657610100808354040283529160200191610751565b820191906000526020600020905b81548152906001019060200180831161073457829003601f168201915b50505050509080600501805461076690612148565b80601f016020809104026020016040519081016040528092919081815260200182805461079290612148565b80156107df5780601f106107b4576101008083540402835291602001916107df565b820191906000526020600020905b8154815290600101906020018083116107c257829003601f168201915b5050505050908060060180546107f490612148565b80601f016020809104026020016040519081016040528092919081815260200182805461082090612148565b801561086d5780601f106108425761010080835404028352916020019161086d565b820191906000526020600020905b81548152906001019060200180831161085057829003601f168201915b5050505050908060070154908060080160009054906101000a900473ffffffffffffffffffffffffffffffffffffffff16905089565b60008651116108e7576040517f08c379a00000000000000000000000000000000000000000000000000000000081526004016108de906121c5565b60405180910390fd5b600085511161092b576040517f08c379a000000000000000000000000000000000000000000000000000000000815260040161092290612231565b60405180910390fd5b600084511161096f576040517f08c379a00000000000000000000000000000000000000000000000000000000081526004016109669061229d565b60405180910390fd5b60008351116109b3576040517f08c379a00000000000000000000000000000000000000000000000000000000081526004016109aa90612309565b60405180910390fd5b60008251116109f7576040517f08c379a00000000000000000000000000000000000000000000000000000000081526004016109ee90612375565b60405180910390fd5b600081118015610a08575060648111155b610a47576040517f08c379a0000000000000000000000000000000000000000000000000000000008152600401610a3e906123e1565b60405180910390fd5b600060405180610120016040528060008054905081526020014281526020018881526020018781526020018681526020018581526020018481526020018381526020013373ffffffffffffffffffffffffffffffffffffffff168152509050600081908060018154018082558091505060019003906000526020600020906009020160009091909190915060008201518160000155602082015181600101556040820151816002019081610afb91906125ad565b506060820151816003019081610b1191906125ad565b506080820151816004019081610b2791906125ad565b5060a0820151816005019081610b3d91906125ad565b5060c0820151816006019081610b5391906125ad565b5060e082015181600701556101008201518160080160006101000a81548173ffffffffffffffffffffffffffffffffffffffff021916908373ffffffffffffffffffffffffffffffffffffffff16021790555050503373ffffffffffffffffffffffffffffffffffffffff1681600001517ff93c39c16de32b01120a1d3aba03cd9bb68a701e7c8fb7b9041435fd2474312983602001518a8787604051610bfd949392919061267f565b60405180910390a350505050505050565b606060008211610c53576040517f08c379a0000000000000000000000000000000000000000000000000000000008152600401610c4a9061271e565b60405180910390fd5b60008080549050905080831115610c68578092505b60008367ffffffffffffffff811115610c8457610c83611c12565b5b604051908082528060200260200182016040528015610cbd57816020015b610caa611819565b815260200190600190039081610ca25790505b50905060005b8481101561108e576000818685610cda91906120b6565b610ce4919061273e565b81548110610cf557610cf46120ea565b5b9060005260206000209060090201604051806101200160405290816000820154815260200160018201548152602001600282018054610d3390612148565b80601f0160208091040260200160405190810160405280929190818152602001828054610d5f90612148565b8015610dac5780601f10610d8157610100808354040283529160200191610dac565b820191906000526020600020905b815481529060010190602001808311610d8f57829003601f168201915b50505050508152602001600382018054610dc590612148565b80601f0160208091040260200160405190810160405280929190818152602001828054610df190612148565b8015610e3e5780601f10610e1357610100808354040283529160200191610e3e565b820191906000526020600020905b815481529060010190602001808311610e2157829003601f168201915b50505050508152602001600482018054610e5790612148565b80601f0160208091040260200160405190810160405280929190818152602001828054610e8390612148565b8015610ed05780601f10610ea557610100808354040283529160200191610ed0565b820191906000526020600020905b815481529060010190602001808311610eb357829003601f168201915b50505050508152602001600582018054610ee990612148565b80601f0160208091040260200160405190810160405280929190818152602001828054610f1590612148565b8015610f625780601f10610f3757610100808354040283529160200191610f62565b820191906000526020600020905b815481529060010190602001808311610f4557829003601f168201915b50505050508152602001600682018054610f7b90612148565b80601f0160208091040260200160405190810160405280929190818152602001828054610fa790612148565b8015610ff45780601f10610fc957610100808354040283529160200191610ff4565b820191906000526020600020905b815481529060010190602001808311610fd757829003601f168201915b50505050508152602001600782015481526020016008820160009054906101000a900473ffffffffffffffffffffffffffffffffffffffff1673ffffffffffffffffffffffffffffffffffffffff1673ffffffffffffffffffffffffffffffffffffffff16815250508282815181106110705761106f6120ea565b5b6020026020010181905250808061108690612772565b915050610cc3565b508092505050919050565b6110a1611819565b60008054905082106110e8576040517f08c379a00000000000000000000000000000000000000000000000000000000081526004016110df90612806565b60405180910390fd5b600082815481106110fc576110fb6120ea565b5b906000526020600020906009020160405180610120016040529081600082015481526020016001820154815260200160028201805461113a90612148565b80601f016020809104026020016040519081016040528092919081815260200182805461116690612148565b80156111b35780601f10611188576101008083540402835291602001916111b3565b820191906000526020600020905b81548152906001019060200180831161119657829003601f168201915b505050505081526020016003820180546111cc90612148565b80601f01602080910402602001604051908101604052809291908181526020018280546111f890612148565b80156112455780601f1061121a57610100808354040283529160200191611245565b820191906000526020600020905b81548152906001019060200180831161122857829003601f168201915b5050505050815260200160048201805461125e90612148565b80601f016020809104026020016040519081016040528092919081815260200182805461128a90612148565b80156112d75780601f106112ac576101008083540402835291602001916112d7565b820191906000526020600020905b8154815290600101906020018083116112ba57829003601f168201915b505050505081526020016005820180546112f090612148565b80601f016020809104026020016040519081016040528092919081815260200182805461131c90612148565b80156113695780601f1061133e57610100808354040283529160200191611369565b820191906000526020600020905b81548152906001019060200180831161134c57829003601f168201915b5050505050815260200160068201805461138290612148565b80601f01602080910402602001604051908101604052809291908181526020018280546113ae90612148565b80156113fb5780601f106113d0576101008083540402835291602001916113fb565b820191906000526020600020905b8154815290600101906020018083116113de57829003601f168201915b50505050508152602001600782015481526020016008820160009054906101000a900473ffffffffffffffffffffffffffffffffffffffff1673ffffffffffffffffffffffffffffffffffffffff1673ffffffffffffffffffffffffffffffffffffffff16815250509050919050565b60606000805480602002602001604051908101604052809291908181526020016000905b8282101561181057838290600052602060002090600902016040518061012001604052908160008201548152602001600182015481526020016002820180546114d790612148565b80601f016020809104026020016040519081016040528092919081815260200182805461150390612148565b80156115505780601f1061152557610100808354040283529160200191611550565b820191906000526020600020905b81548152906001019060200180831161153357829003601f168201915b5050505050815260200160038201805461156990612148565b80601f016020809104026020016040519081016040528092919081815260200182805461159590612148565b80156115e25780601f106115b7576101008083540402835291602001916115e2565b820191906000526020600020905b8154815290600101906020018083116115c557829003601f168201915b505050505081526020016004820180546115fb90612148565b80601f016020809104026020016040519081016040528092919081815260200182805461162790612148565b80156116745780601f1061164957610100808354040283529160200191611674565b820191906000526020600020905b81548152906001019060200180831161165757829003601f168201915b5050505050815260200160058201805461168d90612148565b80601f01602080910402602001604051908101604052809291908181526020018280546116b990612148565b80156117065780601f106116db57610100808354040283529160200191611706565b820191906000526020600020905b8154815290600101906020018083116116e957829003601f168201915b5050505050815260200160068201805461171f90612148565b80601f016020809104026020016040519081016040528092919081815260200182805461174b90612148565b80156117985780601f1061176d57610100808354040283529160200191611798565b820191906000526020600020905b81548152906001019060200180831161177b57829003601f168201915b50505050508152602001600782015481526020016008820160009054906101000a900473ffffffffffffffffffffffffffffffffffffffff1673ffffffffffffffffffffffffffffffffffffffff1673ffffffffffffffffffffffffffffffffffffffff16815250508152602001906001019061148f565b50505050905090565b6040518061012001604052806000815260200160008152602001606081526020016060815260200160608152602001606081526020016060815260200160008152602001600073ffffffffffffffffffffffffffffffffffffffff1681525090565b6000819050919050565b61188e8161187b565b82525050565b600081519050919050565b600082825260208201905092915050565b60005b838110156118ce5780820151818401526020810190506118b3565b60008484015250505050565b6000601f19601f8301169050919050565b60006118f682611894565b611900818561189f565b93506119108185602086016118b0565b611919816118da565b840191505092915050565b600073ffffffffffffffffffffffffffffffffffffffff82169050919050565b600061194f82611924565b9050919050565b61195f81611944565b82525050565b60006101208301600083015161197e6000860182611885565b5060208301516119916020860182611885565b50604083015184820360408601526119a982826118eb565b915050606083015184820360608601526119c382826118eb565b915050608083015184820360808601526119dd82826118eb565b91505060a083015184820360a08601526119f782826118eb565b91505060c083015184820360c0860152611a1182826118eb565b91505060e0830151611a2660e0860182611885565b50610100830151611a3b610100860182611956565b508091505092915050565b60006020820190508181036000830152611a608184611965565b905092915050565b611a718161187b565b82525050565b6000602082019050611a8c6000830184611a68565b92915050565b6000604051905090565b600080fd5b600080fd5b611aaf8161187b565b8114611aba57600080fd5b50565b600081359050611acc81611aa6565b92915050565b600060208284031215611ae857611ae7611a9c565b5b6000611af684828501611abd565b91505092915050565b600082825260208201905092915050565b6000611b1b82611894565b611b258185611aff565b9350611b358185602086016118b0565b611b3e816118da565b840191505092915050565b611b5281611944565b82525050565b600061012082019050611b6e600083018c611a68565b611b7b602083018b611a68565b8181036040830152611b8d818a611b10565b90508181036060830152611ba18189611b10565b90508181036080830152611bb58188611b10565b905081810360a0830152611bc98187611b10565b905081810360c0830152611bdd8186611b10565b9050611bec60e0830185611a68565b611bfa610100830184611b49565b9a9950505050505050505050565b600080fd5b600080fd5b7f4e487b7100000000000000000000000000000000000000000000000000000000600052604160045260246000fd5b611c4a826118da565b810181811067ffffffffffffffff82111715611c6957611c68611c12565b5b80604052505050565b6000611c7c611a92565b9050611c888282611c41565b919050565b600067ffffffffffffffff821115611ca857611ca7611c12565b5b611cb1826118da565b9050602081019050919050565b82818337600083830152505050565b6000611ce0611cdb84611c8d565b611c72565b905082815260208101848484011115611cfc57611cfb611c0d565b5b611d07848285611cbe565b509392505050565b600082601f830112611d2457611d23611c08565b5b8135611d34848260208601611ccd565b91505092915050565b60008060008060008060c08789031215611d5a57611d59611a9c565b5b600087013567ffffffffffffffff811115611d7857611d77611aa1565b5b611d8489828a01611d0f565b965050602087013567ffffffffffffffff811115611da557611da4611aa1565b5b611db189828a01611d0f565b955050604087013567ffffffffffffffff811115611dd257611dd1611aa1565b5b611dde89828a01611d0f565b945050606087013567ffffffffffffffff811115611dff57611dfe611aa1565b5b611e0b89828a01611d0f565b935050608087013567ffffffffffffffff811115611e2c57611e2b611aa1565b5b611e3889828a01611d0f565b92505060a0611e4989828a01611abd565b9150509295509295509295565b600081519050919050565b600082825260208201905092915050565b6000819050602082019050919050565b600061012083016000830151611e9b6000860182611885565b506020830151611eae6020860182611885565b5060408301518482036040860152611ec682826118eb565b91505060608301518482036060860152611ee082826118eb565b91505060808301518482036080860152611efa82826118eb565b91505060a083015184820360a0860152611f1482826118eb565b91505060c083015184820360c0860152611f2e82826118eb565b91505060e0830151611f4360e0860182611885565b50610100830151611f58610100860182611956565b508091505092915050565b6000611f6f8383611e82565b905092915050565b6000602082019050919050565b6000611f8f82611e56565b611f998185611e61565b935083602082028501611fab85611e72565b8060005b85811015611fe75784840389528151611fc88582611f63565b9450611fd383611f77565b925060208a01995050600181019050611faf565b50829750879550505050505092915050565b600060208201905081810360008301526120138184611f84565b905092915050565b7f4e6f206465626174657320796574000000000000000000000000000000000000600082015250565b6000612051600e83611aff565b915061205c8261201b565b602082019050919050565b6000602082019050818103600083015261208081612044565b9050919050565b7f4e487b7100000000000000000000000000000000000000000000000000000000600052601160045260246000fd5b60006120c18261187b565b91506120cc8361187b565b92508282039050818111156120e4576120e3612087565b5b92915050565b7f4e487b7100000000000000000000000000000000000000000000000000000000600052603260045260246000fd5b7f4e487b7100000000000000000000000000000000000000000000000000000000600052602260045260246000fd5b6000600282049050600182168061216057607f821691505b60208210810361217357612172612119565b5b50919050565b7f53796d626f6c2072657175697265640000000000000000000000000000000000600082015250565b60006121af600f83611aff565b91506121ba82612179565b602082019050919050565b600060208201905081810360008301526121de816121a2565b9050919050565b7f416e616c79737420766965772072657175697265640000000000000000000000600082015250565b600061221b601583611aff565b9150612226826121e5565b602082019050919050565b6000602082019050818103600083015261224a8161220e565b9050919050565b7f536b657074696320766965772072657175697265640000000000000000000000600082015250565b6000612287601583611aff565b915061229282612251565b602082019050919050565b600060208201905081810360008301526122b68161227a565b9050919050565b7f446567656e207669657720726571756972656400000000000000000000000000600082015250565b60006122f3601383611aff565b91506122fe826122bd565b602082019050919050565b60006020820190508181036000830152612322816122e6565b9050919050565b7f436f6e73656e7375732072657175697265640000000000000000000000000000600082015250565b600061235f601283611aff565b915061236a82612329565b602082019050919050565b6000602082019050818103600083015261238e81612352565b9050919050565b7f496e76616c696420636f6e666964656e63650000000000000000000000000000600082015250565b60006123cb601283611aff565b91506123d682612395565b602082019050919050565b600060208201905081810360008301526123fa816123be565b9050919050565b60008190508160005260206000209050919050565b60006020601f8301049050919050565b600082821b905092915050565b6000600883026124637fffffffffffffffffffffffffffffffffffffffffffffffffffffffffffffffff82612426565b61246d8683612426565b95508019841693508086168417925050509392505050565b6000819050919050565b60006124aa6124a56124a08461187b565b612485565b61187b565b9050919050565b6000819050919050565b6124c48361248f565b6124d86124d0826124b1565b848454612433565b825550505050565b600090565b6124ed6124e0565b6124f88184846124bb565b505050565b5b8181101561251c576125116000826124e5565b6001810190506124fe565b5050565b601f8211156125615761253281612401565b61253b84612416565b8101602085101561254a578190505b61255e61255685612416565b8301826124fd565b50505b505050565b600082821c905092915050565b600061258460001984600802612566565b1980831691505092915050565b600061259d8383612573565b9150826002028217905092915050565b6125b682611894565b67ffffffffffffffff8111156125cf576125ce611c12565b5b6125d98254612148565b6125e4828285612520565b600060209050601f8311600181146126175760008415612605578287015190505b61260f8582612591565b865550612677565b601f19841661262586612401565b60005b8281101561264d57848901518255600182019150602085019450602081019050612628565b8683101561266a5784890151612666601f891682612573565b8355505b6001600288020188555050505b505050505050565b60006080820190506126946000830187611a68565b81810360208301526126a68186611b10565b905081810360408301526126ba8185611b10565b90506126c96060830184611a68565b95945050505050565b7f436f756e74206d757374206265203e2030000000000000000000000000000000600082015250565b6000612708601183611aff565b9150612713826126d2565b602082019050919050565b60006020820190508181036000830152612737816126fb565b9050919050565b60006127498261187b565b91506127548361187b565b925082820190508082111561276c5761276b612087565b5b92915050565b600061277d8261187b565b91507fffffffffffffffffffffffffffffffffffffffffffffffffffffffffffffffff82036127af576127ae612087565b5b600182019050919050565b7f496e76616c696420646562617465204944000000000000000000000000000000600082015250565b60006127f0601183611aff565b91506127fb826127ba565b602082019050919050565b6000602082019050818103600083015261281f816127e3565b905091905056fea26469706673582212200f5241db3b7c218a586be346b94667488c3f4b262db75da3c878686455d4d1a864736f6c63430008140033",
  "linkReferences": {},
  "deployedLinkReferences": {}
}