{
  "_format": "hh-sol-artifact-1",
  "contractName": "PantheonCouncil",
  "sourceName": "contracts/PantheonCouncil.sol",
  "abi": [
    {
      "inputs": [],
      "stateMutability": "nonpayable",
      "type": "constructor"
    },
    {
      "inputs": [
        {
          "internalType": "address",
          "name": "sender",
          "type": "address"
        },
        {
          "internalType": "uint256",
          "name": "tokenId",
          "type": "uint256"
        },
        {
          "internalType": "address",
          "name": "owner",
          "type": "address"
        }
      ],
      "name": "ERC721IncorrectOwner",
      "type": "error"
    },
    {
      "inputs": [
        {
          "internalType": "address",
          "name": "operator",
          "type": "address"
        },
        {
          "internalType": "uint256",
          "name": "tokenId",
          "type": "uint256"
        }
      ],
      "name": "ERC721InsufficientApproval",
      "type": "error"
    },
    {
      "inputs": [
        {
          "internalType": "address",
          "name": "approver",
          "type": "address"
        }
      ],
      "name": "ERC721InvalidApprover",
      "type": "error"
    },
    {
      "inputs": [
        {
          "internalType": "address",
          "name": "operator",
          "type": "address"
        }
      ],
      "name": "ERC721InvalidOperator",
      "type": "error"
    },
    {
      "inputs": [
        {
          "internalType": "address",
          "name": "owner",
          "type": "address"
        }
      ],
      "name": "ERC721InvalidOwner",
      "type": "error"
    },
    {
      "inputs": [
        {
          "internalType": "address",
          "name": "receiver",
          "type": "address"
        }
      ],
      "name": "ERC721InvalidReceiver",
      "type": "error"
    },
    {
      "inputs": [
        {
          "internalType": "address",
          "name": "sender",
          "type": "address"
        }
      ],
      "name": "ERC721InvalidSender",
      "type": "error"
    },
    {
      "inputs": [
        {
          "internalType": "uint256",
          "name": "tokenId",
          "type": "uint256"
        }
      ],
      "name": "ERC721NonexistentToken",
      "type": "error"
    },
    {
      "inputs": [
        {
          "internalType": "address",
          "name": "owner",
          "type": "address"
        }
      ],
      "name": "OwnableInvalidOwner",
      "type": "error"
    },
    {
      "inputs": [
        {
          "internalType": "address",
          "name": "account",
          "type": "address"
        }
      ],
      "name": "OwnableUnauthorizedAccount",
      "type": "error"
    },
    {
      "anonymous": false,
      "inputs": [
        {
          "indexed": true,
          "internalType": "address",
          "name": "owner",
          "type": "address"
        },
        {
          "indexed": true,
          "internalType": "address",
          "name": "approved",
          "type": "address"
        },
        {
          "indexed": true,
          "internalType": "uint256",
          "name": "tokenId",
          "type": "uint256"
        }
      ],
      "name": "Approval",
      "type": "event"
    },
    {
      "anonymous": false,
      "inputs": [
        {
          "indexed": true,
          "internalType": "address",
          "name": "owner",
          "type": "address"
        },
        {
          "indexed": true,
          "internalType": "address",
          "name": "operator",
          "type": "address"
        },
        {
          "indexed": false,
          "internalType": "bool",
          "name": "approved",
          "type": "bool"
        }
      ],
      "name": "ApprovalForAll",
      "type": "event"
    },
    {
      "anonymous": false,
      "inputs": [
        {
          "indexed": true,
          "internalType": "address",
          "name": "previousOwner",
          "type": "address"
        },
        {
          "indexed": true,
          "internalType": "address",
          "name": "newOwner",
          "type": "address"
        }
      ],
      "name": "OwnershipTransferred",
      "type": "event"
    },
    {
      "anonymous": false,
      "inputs": [
        {
          "indexed": true,
          "internalType": "uint256",
          "name": "tradeId",
          "type": "uint256"
        },
        {
          "indexed": false,
          "internalType": "string",
          "name": "symbol",
          "type": "string"
        },
        {
          "indexed": false,
          "internalType": "string",
          "name": "side",
          "type": "string"
        }
      ],
      "name": "TradeRecorded",
      "type": "event"
    },
    {
      "anonymous": false,
      "inputs": [
        {
          "indexed": true,
          "internalType": "address",
          "name": "from",
          "type": "address"
        },
        {
          "indexed": true,
          "internalType": "address",
          "name": "to",
          "type": "address"
        },
        {
          "indexed": true,
          "internalType": "uint256",
          "name": "tokenId",
          "type": "uint256"
        }
      ],
      "name": "Transfer",
      "type": "event"
    },
    {
      "inputs": [
        {
          "internalType": "uint256",
          "name": "",
          "type": "uint256"
        }
      ],
      "name": "agents",
      "outputs": [
        {
          "internalType": "string",
          "name": "name",
          "type": "string"
        },
        {
          "internalType": "string",
          "name": "personality",
          "type": "string"
        },
        {
          "internalType": "uint256",
          "name": "totalTrades",
          "type": "uint256"
        },
        {
          "internalType": "uint256",
          "name": "performanceScore",
          "type": "uint256"
        }
      ],
      "stateMutability": "view",
      "type": "function"
    },
    {
      "inputs": [
        {
          "internalType": "address",
          "name": "to",
          "type": "address"
        },
        {
          "internalType": "uint256",
          "name": "tokenId",
          "type": "uint256"
        }
      ],
      "name": "approve",
      "outputs": [],
      "stateMutability": "nonpayable",
      "type": "function"
    },
    {
      "inputs": [
        {
          "internalType": "address",
          "name": "owner",
          "type": "address"
        }
      ],
      "name": "balanceOf",
      "outputs": [
        {
          "internalType": "uint256",
          "name": "",
          "type": "uint256"
        }
      ],
      "stateMutability": "view",
      "type": "function"
    },
    {
      "inputs": [
        {
          "internalType": "uint256",
          "name": "tokenId",
          "type": "uint256"
        }
      ],
      "name": "getAgent",
      "outputs": [
        {
          "components": [
            {
              "internalType": "string",
              "name": "name",
              "type": "string"
            },
            {
              "internalType": "string",
              "name": "personality",
              "type": "string"
            },
            {
              "internalType": "uint256",
              "name": "totalTrades",
              "type": "uint256"
            },
            {
              "internalType": "uint256",
              "name": "performanceScore",
              "type": "uint256"
            }
          ],
          "internalType": "struct PantheonCouncil.AgentNFT",
          "name": "",
          "type": "tuple"
        }
      ],
      "stateMutability": "view",
      "type": "function"
    },
    {
      "inputs": [
        {
          "internalType": "uint256",
          "name": "tokenId",
          "type": "uint256"
        }
      ],
      "name": "getApproved",
      "outputs": [
        {
          "internalType": "address",
          "name": "",
          "type": "address"
        }
      ],
      "stateMutability": "view",
      "type": "function"
    },
    {
      "inputs": [],
      "name": "getTotalTrades",
      "outputs": [
        {
          "internalType": "uint256",
          "name": "",
          "type": "uint256"
        }
      ],
      "stateMutability": "view",
      "type": "function"
    },
    {
      "inputs": [
        {
          "internalType": "uint256",
          "name": "tradeId",
          "type": "uint256"
        }
      ],
      "name": "getTrade",
      "outputs": [
        {
          "components": [
            {
              "internalType": "uint256",
              "name": "id",
              "type": "uint256"
            },
            {
              "internalType": "uint256",
              "name": "timestamp",
              "type": "uint256"
            },
            {
              "internalType": "string",
              "name": "symbol",
              "type": "string"
            },
            {
              "internalType": "string",
              "name": "side",
              "type": "string"
            },
            {
              "internalType": "uint256",
              "name": "entryPrice",
              "type": "uint256"
            },
            {
              "internalType": "uint256",
              "name": "quantity",
              "type": "uint256"
            },
            {
              "internalType": "uint256",
              "name": "confidence",
              "type": "uint256"
            },
            {
              "internalType": "string",
              "name": "verdict",
              "type": "string"
            },
            {
              "internalType": "bool",
              "name": "executed",
              "type": "bool"
            }
          ],
          "internalType": "struct PantheonCouncil.Trade",
          "name": "",
          "type": "tuple"
        }
      ],
      "stateMutability": "view",
      "type": "function"
    },
    {
      "inputs": [
        {
          "internalType": "address",
          "name": "owner",
          "type": "address"
        },
        {
          "internalType": "address",
          "name": "operator",
          "type": "address"
        }
      ],
      "name": "isApprovedForAll",
      "outputs": [
        {
          "internalType": "bool",
          "name": "",
          "type": "bool"
        }
      ],
      "stateMutability": "view",
      "type": "function"
    },
    {
      "inputs": [],
      "name": "name",
      "outputs": [
        {
          "internalType": "string",
          "name": "",
          "type": "string"
        }
      ],
      "stateMutability": "view",
      "type": "function"
    },
    {
      "inputs": [],
      "name": "owner",
      "outputs": [
        {
          "internalType": "address",
          "name": "",
          "type": "address"
        }
      ],
      "stateMutability": "view",
      "type": "function"
    },
    {
      "inputs": [
        {
          "internalType": "uint256",
          "name": "tokenId",
          "type": "uint256"
        }
      ],
      "name": "ownerOf",
      "outputs": [
        {
          "internalType": "address",
          "name": "",
          "type": "address"
        }
      ],
      "stateMutability": "view",
      "type": "function"
    },
    {
      "inputs": [
        {
          "internalType": "string",
          "name": "symbol",
          "type": "string"
        },
        {
          "internalType": "string",
          "name": "side",
          "type": "string"
        },
        {
          "internalType": "uint256",
          "name": "entryPrice",
          "type": "uint256"
        },
        {
          "internalType": "uint256",
          "name": "quantity",
          "type": "uint256"
        },
        {
          "internalType": "uint256",
          "name": "confidence",
          "type": "uint256"
        },
        {
          "internalType": "string",
          "name": "verdict",
          "type": "string"
        }
      ],
      "name": "recordTrade",
      "outputs": [
        {
          "internalType": "uint256",
          "name": "",
          "type": "uint256"
        }
      ],
      "stateMutability": "nonpayable",
      "type": "function"
    },
    {
      "inputs": [],
      "name": "renounceOwnership",
      "outputs": [],
      "stateMutability": "nonpayable",
      "type": "function"
    },
    {
      "inputs": [
        {
          "internalType": "address",
          "name": "from",
          "type": "address"
        },
        {
          "internalType": "address",
          "name": "to",
          "type": "address"
        },
        {
          "internalType": "uint256",
          "name": "tokenId",
          "type": "uint256"
        }
      ],
      "name": "safeTransferFrom",
      "outputs": [],
      "stateMutability": "nonpayable",
      "type": "function"
    },
    {
      "inputs": [
        {
          "internalType": "address",
          "name": "from",
          "type": "address"
        },
        {
          "internalType": "address",
          "name": "to",
          "type": "address"
        },
        {
          "internalType": "uint256",
          "name": "tokenId",
          "type": "uint256"
        },
        {
          "internalType": "bytes",
          "name": "data",
          "type": "bytes"
        }
      ],
      "name": "safeTransferFrom",
      "outputs": [],
      "stateMutability": "nonpayable",
      "type": "function"
    },
    {
      "inputs": [
        {
          "internalType": "address",
          "name": "operator",
          "type": "address"
        },
        {
          "internalType": "bool",
          "name": "approved",
          "type": "bool"
        }
      ],
      "name": "setApprovalForAll",
      "outputs": [],
      "stateMutability": "nonpayable",
      "type": "function"
    },
    {
      "inputs": [
        {
          "internalType": "bytes4",
          "name": "interfaceId",
          "type": "bytes4"
        }
      ],
      "name": "supportsInterface",
      "outputs": [
        {
          "internalType": "bool",
          "name": "",
          "type": "bool"
        }
      ],
      "stateMutability": "view",
      "type": "function"
    },
    {
      "inputs": [],
      "name": "symbol",
      "outputs": [
        {
          "internalType": "string",
          "name": "",
          "type": "string"
        }
      ],
      "stateMutability": "view",
      "type": "function"
    },
    {
      "inputs": [
        {
          "internalType": "uint256",
          "name": "tokenId",
          "type": "uint256"
        }
      ],
      "name": "tokenURI",
      "outputs": [
        {
          "internalType": "string",
          "name": "",
          "type": "string"
        }
      ],
      "stateMutability": "view",
      "type": "function"
    },
    {
      "inputs": [
        {
          "internalType": "uint256",
          "name": "",
          "type": "uint256"
        }
      ],
      "name": "trades",
      "outputs": [
        {
          "internalType": "uint256",
          "name": "id",
          "type": "uint256"
        },
        {
          "internalType": "uint256",
          "name": "timestamp",
          "type": "uint256"
        },
        {
          "internalType": "string",
          "name": "symbol",
          "type": "string"
        },
        {
          "internalType": "string",
          "name": "side",
          "type": "string"
        },
        {
          "internalType": "uint256",
          "name": "entryPrice",
          "type": "uint256"
        },
        {
          "internalType": "uint256",
          "name": "quantity",
          "type": "uint256"
        },
        {
          "internalType": "uint256",
          "name": "confidence",
          "type": "uint256"
        },
        {
          "internalType": "string",
          "name": "verdict",
          "type": "string"
        },
        {
          "internalType": "bool",
          "name": "executed",
          "type": "bool"
        }
      ],
      "stateMutability": "view",
      "type": "function"
    },
    {
      "inputs": [
        {
          "internalType": "address",
          "name": "from",
          "type": "address"
        },
        {
          "internalType": "address",
          "name": "to",
          "type": "address"
        },
        {
          "internalType": "uint256",
          "name": "tokenId",
          "type": "uint256"
        }
      ],
      "name": "transferFrom",
      "outputs": [],
      "stateMutability": "nonpayable",
      "type": "function"
    },
    {
      "inputs": [
        {
          "internalType": "address",
          "name": "newOwner",
          "type": "address"
        }
      ],
      "name": "transferOwnership",
      "outputs": [],
      "stateMutability": "nonpayable",
      "type": "function"
    }
  ],
  "bytecode": "0x60806040523480156200001157600080fd5b50336040518060400160405280600e81526020017f50616e7468656f6e204167656e740000000000000000000000000000000000008152506040518060400160405280600681526020017f504147454e54000000000000000000000000000000000000000000000000000081525081600090816200009091906200112e565b508060019081620000a291906200112e565b505050600073ffffffffffffffffffffffffffffffffffffffff168173ffffffffffffffffffffffffffffffffffffffff16036200011a5760006040517f1e4fbdf70000000000000000000000000000000000000000000000000000000081526004016200011191906200125a565b60405180910390fd5b6200012b81620002ac60201b60201c565b50620001a9336040518060400160405280600781526020017f416e616c797374000000000000000000000000000000000000000000000000008152506040518060400160405280601381526020017f446174612d64726976656e20616e616c797374000000000000000000000000008152506200037260201b60201c565b5062000227336040518060400160405280600781526020017f536b6570746963000000000000000000000000000000000000000000000000008152506040518060400160405280601781526020017f5269736b2d666f637573656420636f6e7472617269616e0000000000000000008152506200037260201b60201c565b50620002a5336040518060400160405280600581526020017f446567656e0000000000000000000000000000000000000000000000000000008152506040518060400160405280600f81526020017f4d6f6d656e74756d2074726164657200000000000000000000000000000000008152506200037260201b60201c565b50620014d0565b6000600660009054906101000a900473ffffffffffffffffffffffffffffffffffffffff16905081600660006101000a81548173ffffffffffffffffffffffffffffffffffffffff021916908373ffffffffffffffffffffffffffffffffffffffff1602179055508173ffffffffffffffffffffffffffffffffffffffff168173ffffffffffffffffffffffffffffffffffffffff167f8be0079c531659141344cd1fd0a4f28419497f9722a3daafe3b4186f6b6457e060405160405180910390a35050565b600080600860008154809291906200038a90620012a6565b919050559050620003a285826200042a60201b60201c565b6040518060800160405280858152602001848152602001600081526020016032815250600a60008381526020019081526020016000206000820151816000019081620003ef91906200112e565b5060208201518160010190816200040791906200112e565b506040820151816002015560608201518160030155905050809150509392505050565b6200044c8282604051806020016040528060008152506200045060201b60201c565b5050565b6200046283836200048c60201b60201c565b62000487620004766200059360201b60201c565b60008585856200059b60201b60201c565b505050565b600073ffffffffffffffffffffffffffffffffffffffff168273ffffffffffffffffffffffffffffffffffffffff1603620005015760006040517f64a0ae92000000000000000000000000000000000000000000000000000000008152600401620004f891906200125a565b60405180910390fd5b600062000517838360006200075b60201b60201c565b9050600073ffffffffffffffffffffffffffffffffffffffff168173ffffffffffffffffffffffffffffffffffffffff16146200058e5760006040517f73c6ac6e0000000000000000000000000000000000000000000000000000000081526004016200058591906200125a565b60405180910390fd5b505050565b600033905090565b60008373ffffffffffffffffffffffffffffffffffffffff163b111562000754578273ffffffffffffffffffffffffffffffffffffffff1663150b7a02868685856040518563ffffffff1660e01b8152600401620005fd94939291906200139e565b6020604051808303816000875af19250505080156200063c57506040513d601f19601f8201168201806040525081019062000639919062001454565b60015b620006c6573d80600081146200066f576040519150601f19603f3d011682016040523d82523d6000602084013e62000674565b606091505b506000815103620006be57836040517f64a0ae92000000000000000000000000000000000000000000000000000000008152600401620006b591906200125a565b60405180910390fd5b805160208201fd5b63150b7a0260e01b7bffffffffffffffffffffffffffffffffffffffffffffffffffffffff1916817bffffffffffffffffffffffffffffffffffffffffffffffffffffffff1916146200075257836040517f64a0ae920000000000000000000000000000000000000000000000000000000081526004016200074991906200125a565b60405180910390fd5b505b5050505050565b6000806200076f846200099060201b60201c565b9050600073ffffffffffffffffffffffffffffffffffffffff168373ffffffffffffffffffffffffffffffffffffffff1614620007ba57620007b9818486620009cd60201b60201c565b5b600073ffffffffffffffffffffffffffffffffffffffff168173ffffffffffffffffffffffffffffffffffffffff161462000854576200080560008560008062000a9f60201b60201c565b6001600360008373ffffffffffffffffffffffffffffffffffffffff1673ffffffffffffffffffffffffffffffffffffffff168152602001908152602001600020600082825403925050819055505b600073ffffffffffffffffffffffffffffffffffffffff168573ffffffffffffffffffffffffffffffffffffffff1614620008d8576001600360008773ffffffffffffffffffffffffffffffffffffffff1673ffffffffffffffffffffffffffffffffffffffff168152602001908152602001600020600082825401925050819055505b846002600086815260200190815260200160002060006101000a81548173ffffffffffffffffffffffffffffffffffffffff021916908373ffffffffffffffffffffffffffffffffffffffff160217905550838573ffffffffffffffffffffffffffffffffffffffff168273ffffffffffffffffffffffffffffffffffffffff167fddf252ad1be2c89b69c2b068fc378daa952ba7f163c4a11628f55a4df523b3ef60405160405180910390a4809150509392505050565b60006002600083815260200190815260200160002060009054906101000a900473ffffffffffffffffffffffffffffffffffffffff169050919050565b620009e083838362000c7c60201b60201c565b62000a9a57600073ffffffffffffffffffffffffffffffffffffffff168373ffffffffffffffffffffffffffffffffffffffff160362000a5957806040517f7e27328900000000000000000000000000000000000000000000000000000000815260040162000a50919062001486565b60405180910390fd5b81816040517f177e802f00000000000000000000000000000000000000000000000000000000815260040162000a91929190620014a3565b60405180910390fd5b505050565b808062000ad95750600073ffffffffffffffffffffffffffffffffffffffff168273ffffffffffffffffffffffffffffffffffffffff1614155b1562000c2457600062000af28462000d5060201b60201c565b9050600073ffffffffffffffffffffffffffffffffffffffff168373ffffffffffffffffffffffffffffffffffffffff161415801562000b5e57508273ffffffffffffffffffffffffffffffffffffffff168173ffffffffffffffffffffffffffffffffffffffff1614155b801562000b7a575062000b78818462000de360201b60201c565b155b1562000bbf57826040517fa9fbf51f00000000000000000000000000000000000000000000000000000000815260040162000bb691906200125a565b60405180910390fd5b811562000c2257838573ffffffffffffffffffffffffffffffffffffffff168273ffffffffffffffffffffffffffffffffffffffff167f8c5be1e5ebec7d5bd14f71427d1e84f3dd0314c0f7b2291e5b200ac8c7c3b92560405160405180910390a45b505b836004600085815260200190815260200160002060006101000a81548173ffffffffffffffffffffffffffffffffffffffff021916908373ffffffffffffffffffffffffffffffffffffffff16021790555050505050565b60008073ffffffffffffffffffffffffffffffffffffffff168373ffffffffffffffffffffffffffffffffffffffff161415801562000d4757508273ffffffffffffffffffffffffffffffffffffffff168473ffffffffffffffffffffffffffffffffffffffff16148062000cff575062000cfe848462000de360201b60201c565b5b8062000d4657508273ffffffffffffffffffffffffffffffffffffffff1662000d2e8362000e7760201b60201c565b73ffffffffffffffffffffffffffffffffffffffff16145b5b90509392505050565b60008062000d64836200099060201b60201c565b9050600073ffffffffffffffffffffffffffffffffffffffff168173ffffffffffffffffffffffffffffffffffffffff160362000dda57826040517f7e27328900000000000000000000000000000000000000000000000000000000815260040162000dd1919062001486565b60405180910390fd5b80915050919050565b6000600560008473ffffffffffffffffffffffffffffffffffffffff1673ffffffffffffffffffffffffffffffffffffffff16815260200190815260200160002060008373ffffffffffffffffffffffffffffffffffffffff1673ffffffffffffffffffffffffffffffffffffffff16815260200190815260200160002060009054906101000a900460ff16905092915050565b60006004600083815260200190815260200160002060009054906101000a900473ffffffffffffffffffffffffffffffffffffffff169050919050565b600081519050919050565b7f4e487b7100000000000000000000000000000000000000000000000000000000600052604160045260246000fd5b7f4e487b7100000000000000000000000000000000000000000000000000000000600052602260045260246000fd5b6000600282049050600182168062000f3657607f821691505b60208210810362000f4c5762000f4b62000eee565b5b50919050565b60008190508160005260206000209050919050565b60006020601f8301049050919050565b600082821b905092915050565b60006008830262000fb67fffffffffffffffffffffffffffffffffffffffffffffffffffffffffffffffff8262000f77565b62000fc2868362000f77565b95508019841693508086168417925050509392505050565b6000819050919050565b6000819050919050565b60006200100f62001009620010038462000fda565b62000fe4565b62000fda565b9050919050565b6000819050919050565b6200102b8362000fee565b620010436200103a8262001016565b84845462000f84565b825550505050565b600090565b6200105a6200104b565b6200106781848462001020565b505050565b5b818110156200108f576200108360008262001050565b6001810190506200106d565b5050565b601f821115620010de57620010a88162000f52565b620010b38462000f67565b81016020851015620010c3578190505b620010db620010d28562000f67565b8301826200106c565b50505b505050565b600082821c905092915050565b60006200110360001984600802620010e3565b1980831691505092915050565b60006200111e8383620010f0565b9150826002028217905092915050565b620011398262000eb4565b67ffffffffffffffff81111562001155576200115462000ebf565b5b62001161825462000f1d565b6200116e82828562001093565b600060209050601f831160018114620011a6576000841562001191578287015190505b6200119d858262001110565b8655506200120d565b601f198416620011b68662000f52565b60005b82811015620011e057848901518255600182019150602085019450602081019050620011b9565b86831015620012005784890151620011fc601f891682620010f0565b8355505b6001600288020188555050505b505050505050565b600073ffffffffffffffffffffffffffffffffffffffff82169050919050565b6000620012428262001215565b9050919050565b620012548162001235565b82525050565b600060208201905062001271600083018462001249565b92915050565b7f4e487b7100000000000000000000000000000000000000000000000000000000600052601160045260246000fd5b6000620012b38262000fda565b91507fffffffffffffffffffffffffffffffffffffffffffffffffffffffffffffffff8203620012e857620012e762001277565b5b600182019050919050565b620012fe8162000fda565b82525050565b600081519050919050565b600082825260208201905092915050565b60005b838110156200134057808201518184015260208101905062001323565b60008484015250505050565b6000601f19601f8301169050919050565b60006200136a8262001304565b6200137681856200130f565b93506200138881856020860162001320565b62001393816200134c565b840191505092915050565b6000608082019050620013b5600083018762001249565b620013c4602083018662001249565b620013d36040830185620012f3565b8181036060830152620013e781846200135d565b905095945050505050565b600080fd5b60007fffffffff0000000000000000000000000000000000000000000000000000000082169050919050565b6200142e81620013f7565b81146200143a57600080fd5b50565b6000815190506200144e8162001423565b92915050565b6000602082840312156200146d576200146c620013f2565b5b60006200147d848285016200143d565b91505092915050565b60006020820190506200149d6000830184620012f3565b92915050565b6000604082019050620014ba600083018562001249565b620014c96020830184620012f3565b9392505050565b61308f80620014e06000396000f3fe608060405234801561001057600080fd5b50600436106101425760003560e01c80636352211e116100b8578063a22cb4651161007c578063a22cb465146103ba578063b88d4fde146103d6578063c87b56dd146103f2578063e985e9c514610422578063ebd34f5014610452578063f2fde38b1461047057610142565b80636352211e1461031457806370a0823114610344578063715018a6146103745780638da5cb5b1461037e57806395d89b411461039c57610142565b806323b872dd1161010a57806323b872dd146102195780632db25e05146102355780632de5aaf71461026557806342842e0e14610295578063479ced42146102b1578063513856c8146102e157610142565b806301ffc9a71461014757806306fdde0314610177578063081812fc14610195578063095ea7b3146101c55780631e6c598e146101e1575b600080fd5b610161600480360381019061015c919061214d565b61048c565b60405161016e9190612195565b60405180910390f35b61017f61056e565b60405161018c9190612240565b60405180910390f35b6101af60048036038101906101aa9190612298565b610600565b6040516101bc9190612306565b60405180910390f35b6101df60048036038101906101da919061234d565b61061c565b005b6101fb60048036038101906101f69190612298565b610632565b6040516102109998979695949392919061239c565b60405180910390f35b610233600480360381019061022e919061243e565b610825565b005b61024f600480360381019061024a9190612298565b610927565b60405161025c91906125cc565b60405180910390f35b61027f600480360381019061027a9190612298565b610b58565b60405161028c9190612658565b60405180910390f35b6102af60048036038101906102aa919061243e565b610cbd565b005b6102cb60048036038101906102c691906127af565b610cdd565b6040516102d89190612890565b60405180910390f35b6102fb60048036038101906102f69190612298565b610e38565b60405161030b94939291906128ab565b60405180910390f35b61032e60048036038101906103299190612298565b610f78565b60405161033b9190612306565b60405180910390f35b61035e600480360381019061035991906128fe565b610f8a565b60405161036b9190612890565b60405180910390f35b61037c611044565b005b610386611058565b6040516103939190612306565b60405180910390f35b6103a4611082565b6040516103b19190612240565b60405180910390f35b6103d460048036038101906103cf9190612957565b611114565b005b6103f060048036038101906103eb9190612a38565b61112a565b005b61040c60048036038101906104079190612298565b61114f565b6040516104199190612240565b60405180910390f35b61043c60048036038101906104379190612abb565b6111b8565b6040516104499190612195565b60405180910390f35b61045a61124c565b6040516104679190612890565b60405180910390f35b61048a600480360381019061048591906128fe565b611256565b005b60007f80ac58cd000000000000000000000000000000000000000000000000000000007bffffffffffffffffffffffffffffffffffffffffffffffffffffffff1916827bffffffffffffffffffffffffffffffffffffffffffffffffffffffff1916148061055757507f5b5e139f000000000000000000000000000000000000000000000000000000007bffffffffffffffffffffffffffffffffffffffffffffffffffffffff1916827bffffffffffffffffffffffffffffffffffffffffffffffffffffffff1916145b806105675750610566826112dc565b5b9050919050565b60606000805461057d90612b2a565b80601f01602080910402602001604051908101604052809291908181526020018280546105a990612b2a565b80156105f65780601f106105cb576101008083540402835291602001916105f6565b820191906000526020600020905b8154815290600101906020018083116105d957829003601f168201915b5050505050905090565b600061060b82611346565b50610615826113ce565b9050919050565b61062e828261062961140b565b611413565b5050565b600960205280600052604060002060009150905080600001549080600101549080600201805461066190612b2a565b80601f016020809104026020016040519081016040528092919081815260200182805461068d90612b2a565b80156106da5780601f106106af576101008083540402835291602001916106da565b820191906000526020600020905b8154815290600101906020018083116106bd57829003601f168201915b5050505050908060030180546106ef90612b2a565b80601f016020809104026020016040519081016040528092919081815260200182805461071b90612b2a565b80156107685780601f1061073d57610100808354040283529160200191610768565b820191906000526020600020905b81548152906001019060200180831161074b57829003601f168201915b50505050509080600401549080600501549080600601549080600701805461078f90612b2a565b80601f01602080910402602001604051908101604052809291908181526020018280546107bb90612b2a565b80156108085780601f106107dd57610100808354040283529160200191610808565b820191906000526020600020905b8154815290600101906020018083116107eb57829003601f168201915b5050505050908060080160009054906101000a900460ff16905089565b600073ffffffffffffffffffffffffffffffffffffffff168273ffffffffffffffffffffffffffffffffffffffff16036108975760006040517f64a0ae9200000000000000000000000000000000000000000000000000000000815260040161088e9190612306565b60405180910390fd5b60006108ab83836108a661140b565b611425565b90508373ffffffffffffffffffffffffffffffffffffffff168173ffffffffffffffffffffffffffffffffffffffff1614610921578382826040517f64283d7b00000000000000000000000000000000000000000000000000000000815260040161091893929190612b5b565b60405180910390fd5b50505050565b61092f61206b565b6009600083815260200190815260200160002060405180610120016040529081600082015481526020016001820154815260200160028201805461097290612b2a565b80601f016020809104026020016040519081016040528092919081815260200182805461099e90612b2a565b80156109eb5780601f106109c0576101008083540402835291602001916109eb565b820191906000526020600020905b8154815290600101906020018083116109ce57829003601f168201915b50505050508152602001600382018054610a0490612b2a565b80601f0160208091040260200160405190810160405280929190818152602001828054610a3090612b2a565b8015610a7d5780601f10610a5257610100808354040283529160200191610a7d565b820191906000526020600020905b815481529060010190602001808311610a6057829003601f168201915b50505050508152602001600482015481526020016005820154815260200160068201548152602001600782018054610ab490612b2a565b80601f0160208091040260200160405190810160405280929190818152602001828054610ae090612b2a565b8015610b2d5780601f10610b0257610100808354040283529160200191610b2d565b820191906000526020600020905b815481529060010190602001808311610b1057829003601f168201915b505050505081526020016008820160009054906101000a900460ff1615151515815250509050919050565b610b606120b9565b600a6000838152602001908152602001600020604051806080016040529081600082018054610b8e90612b2a565b80601f0160208091040260200160405190810160405280929190818152602001828054610bba90612b2a565b8015610c075780601f10610bdc57610100808354040283529160200191610c07565b820191906000526020600020905b815481529060010190602001808311610bea57829003601f168201915b50505050508152602001600182018054610c2090612b2a565b80601f0160208091040260200160405190810160405280929190818152602001828054610c4c90612b2a565b8015610c995780601f10610c6e57610100808354040283529160200191610c99565b820191906000526020600020905b815481529060010190602001808311610c7c57829003601f168201915b50505050508152602001600282015481526020016003820154815250509050919050565b610cd88383836040518060200160405280600081525061112a565b505050565b6000610ce761163f565b600060076000815480929190610cfc90612bc1565b919050559050604051806101200160405280828152602001428152602001898152602001888152602001878152602001868152602001858152602001848152602001600115158152506009600083815260200190815260200160002060008201518160000155602082015181600101556040820151816002019081610d819190612db5565b506060820151816003019081610d979190612db5565b506080820151816004015560a0820151816005015560c0820151816006015560e0820151816007019081610dcb9190612db5565b506101008201518160080160006101000a81548160ff021916908315150217905550905050807fbd88b7d78fde75d88fa6e1dc0f10ecf10516ae8cdd40fa7c03e10fb1a3bf56198989604051610e22929190612e87565b60405180910390a2809150509695505050505050565b600a602052806000526040600020600091509050806000018054610e5b90612b2a565b80601f0160208091040260200160405190810160405280929190818152602001828054610e8790612b2a565b8015610ed45780601f10610ea957610100808354040283529160200191610ed4565b820191906000526020600020905b815481529060010190602001808311610eb757829003601f168201915b505050505090806001018054610ee990612b2a565b80601f0160208091040260200160405190810160405280929190818152602001828054610f1590612b2a565b8015610f625780601f10610f3757610100808354040283529160200191610f62565b820191906000526020600020905b815481529060010190602001808311610f4557829003601f168201915b5050505050908060020154908060030154905084565b6000610f8382611346565b9050919050565b60008073ffffffffffffffffffffffffffffffffffffffff168273ffffffffffffffffffffffffffffffffffffffff1603610ffd5760006040517f89c62b64000000000000000000000000000000000000000000000000000000008152600401610ff49190612306565b60405180910390fd5b600360008373ffffffffffffffffffffffffffffffffffffffff1673ffffffffffffffffffffffffffffffffffffffff168152602001908152602001600020549050919050565b61104c61163f565b61105660006116c6565b565b6000600660009054906101000a900473ffffffffffffffffffffffffffffffffffffffff16905090565b60606001805461109190612b2a565b80601f01602080910402602001604051908101604052809291908181526020018280546110bd90612b2a565b801561110a5780601f106110df5761010080835404028352916020019161110a565b820191906000526020600020905b8154815290600101906020018083116110ed57829003601f168201915b5050505050905090565b61112661111f61140b565b838361178c565b5050565b611135848484610825565b61114961114061140b565b858585856118fb565b50505050565b606061115a82611346565b506000611165611aac565b9050600081511161118557604051806020016040528060008152506111b0565b8061118f84611ac3565b6040516020016111a0929190612efa565b6040516020818303038152906040525b915050919050565b6000600560008473ffffffffffffffffffffffffffffffffffffffff1673ffffffffffffffffffffffffffffffffffffffff16815260200190815260200160002060008373ffffffffffffffffffffffffffffffffffffffff1673ffffffffffffffffffffffffffffffffffffffff16815260200190815260200160002060009054906101000a900460ff16905092915050565b6000600754905090565b61125e61163f565b600073ffffffffffffffffffffffffffffffffffffffff168173ffffffffffffffffffffffffffffffffffffffff16036112d05760006040517f1e4fbdf70000000000000000000000000000000000000000000000000000000081526004016112c79190612306565b60405180910390fd5b6112d9816116c6565b50565b60007f01ffc9a7000000000000000000000000000000000000000000000000000000007bffffffffffffffffffffffffffffffffffffffffffffffffffffffff1916827bffffffffffffffffffffffffffffffffffffffffffffffffffffffff1916149050919050565b60008061135283611b91565b9050600073ffffffffffffffffffffffffffffffffffffffff168173ffffffffffffffffffffffffffffffffffffffff16036113c557826040517f7e2732890000000000000000000000000000000000000000000000000000000081526004016113bc9190612890565b60405180910390fd5b80915050919050565b60006004600083815260200190815260200160002060009054906101000a900473ffffffffffffffffffffffffffffffffffffffff169050919050565b600033905090565b6114208383836001611bce565b505050565b60008061143184611b91565b9050600073ffffffffffffffffffffffffffffffffffffffff168373ffffffffffffffffffffffffffffffffffffffff161461147357611472818486611d93565b5b600073ffffffffffffffffffffffffffffffffffffffff168173ffffffffffffffffffffffffffffffffffffffff1614611504576114b5600085600080611bce565b6001600360008373ffffffffffffffffffffffffffffffffffffffff1673ffffffffffffffffffffffffffffffffffffffff168152602001908152602001600020600082825403925050819055505b600073ffffffffffffffffffffffffffffffffffffffff168573ffffffffffffffffffffffffffffffffffffffff1614611587576001600360008773ffffffffffffffffffffffffffffffffffffffff1673ffffffffffffffffffffffffffffffffffffffff168152602001908152602001600020600082825401925050819055505b846002600086815260200190815260200160002060006101000a81548173ffffffffffffffffffffffffffffffffffffffff021916908373ffffffffffffffffffffffffffffffffffffffff160217905550838573ffffffffffffffffffffffffffffffffffffffff168273ffffffffffffffffffffffffffffffffffffffff167fddf252ad1be2c89b69c2b068fc378daa952ba7f163c4a11628f55a4df523b3ef60405160405180910390a4809150509392505050565b61164761140b565b73ffffffffffffffffffffffffffffffffffffffff16611665611058565b73ffffffffffffffffffffffffffffffffffffffff16146116c45761168861140b565b6040517f118cdaa70000000000000000000000000000000000000000000000000000000081526004016116bb9190612306565b60405180910390fd5b565b6000600660009054906101000a900473ffffffffffffffffffffffffffffffffffffffff16905081600660006101000a81548173ffffffffffffffffffffffffffffffffffffffff021916908373ffffffffffffffffffffffffffffffffffffffff1602179055508173ffffffffffffffffffffffffffffffffffffffff168173ffffffffffffffffffffffffffffffffffffffff167f8be0079c531659141344cd1fd0a4f28419497f9722a3daafe3b4186f6b6457e060405160405180910390a35050565b600073ffffffffffffffffffffffffffffffffffffffff168273ffffffffffffffffffffffffffffffffffffffff16036117fd57816040517f5b08ba180000000000000000000000000000000000000000000000000000000081526004016117f49190612306565b60405180910390fd5b80600560008573ffffffffffffffffffffffffffffffffffffffff1673ffffffffffffffffffffffffffffffffffffffff16815260200190815260200160002060008473ffffffffffffffffffffffffffffffffffffffff1673ffffffffffffffffffffffffffffffffffffffff16815260200190815260200160002060006101000a81548160ff0219169083151502179055508173ffffffffffffffffffffffffffffffffffffffff168373ffffffffffffffffffffffffffffffffffffffff167f17307eab39ab6107e8899845ad3d59bd9653f200f220920489ca2b5937696c31836040516118ee9190612195565b60405180910390a3505050565b60008373ffffffffffffffffffffffffffffffffffffffff163b1115611aa5578273ffffffffffffffffffffffffffffffffffffffff1663150b7a02868685856040518563ffffffff1660e01b815260040161195a9493929190612f73565b6020604051808303816000875af192505050801561199657506040513d601f19601f820116820180604052508101906119939190612fd4565b60015b611a1a573d80600081146119c6576040519150601f19603f3d011682016040523d82523d6000602084013e6119cb565b606091505b506000815103611a1257836040517f64a0ae92000000000000000000000000000000000000000000000000000000008152600401611a099190612306565b60405180910390fd5b805160208201fd5b63150b7a0260e01b7bffffffffffffffffffffffffffffffffffffffffffffffffffffffff1916817bffffffffffffffffffffffffffffffffffffffffffffffffffffffff191614611aa357836040517f64a0ae92000000000000000000000000000000000000000000000000000000008152600401611a9a9190612306565b60405180910390fd5b505b5050505050565b606060405180602001604052806000815250905090565b606060006001611ad284611e57565b01905060008167ffffffffffffffff811115611af157611af0612684565b5b6040519080825280601f01601f191660200182016040528015611b235781602001600182028036833780820191505090505b509050600082602083010190505b600115611b86578080600190039150507f3031323334353637383961626364656600000000000000000000000000000000600a86061a8153600a8581611b7a57611b79613001565b5b04945060008503611b31575b819350505050919050565b60006002600083815260200190815260200160002060009054906101000a900473ffffffffffffffffffffffffffffffffffffffff169050919050565b8080611c075750600073ffffffffffffffffffffffffffffffffffffffff168273ffffffffffffffffffffffffffffffffffffffff1614155b15611d3b576000611c1784611346565b9050600073ffffffffffffffffffffffffffffffffffffffff168373ffffffffffffffffffffffffffffffffffffffff1614158015611c8257508273ffffffffffffffffffffffffffffffffffffffff168173ffffffffffffffffffffffffffffffffffffffff1614155b8015611c955750611c9381846111b8565b155b15611cd757826040517fa9fbf51f000000000000000000000000000000000000000000000000000000008152600401611cce9190612306565b60405180910390fd5b8115611d3957838573ffffffffffffffffffffffffffffffffffffffff168273ffffffffffffffffffffffffffffffffffffffff167f8c5be1e5ebec7d5bd14f71427d1e84f3dd0314c0f7b2291e5b200ac8c7c3b92560405160405180910390a45b505b836004600085815260200190815260200160002060006101000a81548173ffffffffffffffffffffffffffffffffffffffff021916908373ffffffffffffffffffffffffffffffffffffffff16021790555050505050565b611d9e838383611faa565b611e5257600073ffffffffffffffffffffffffffffffffffffffff168373ffffffffffffffffffffffffffffffffffffffff1603611e1357806040517f7e273289000000000000000000000000000000000000000000000000000000008152600401611e0a9190612890565b60405180910390fd5b81816040517f177e802f000000000000000000000000000000000000000000000000000000008152600401611e49929190613030565b60405180910390fd5b505050565b600080600090507a184f03e93ff9f4daa797ed6e38ed64bf6a1f0100000000000000008310611eb5577a184f03e93ff9f4daa797ed6e38ed64bf6a1f0100000000000000008381611eab57611eaa613001565b5b0492506040810190505b6d04ee2d6d415b85acef81000000008310611ef2576d04ee2d6d415b85acef81000000008381611ee857611ee7613001565b5b0492506020810190505b662386f26fc100008310611f2157662386f26fc100008381611f1757611f16613001565b5b0492506010810190505b6305f5e1008310611f4a576305f5e1008381611f4057611f3f613001565b5b0492506008810190505b6127108310611f6f576127108381611f6557611f64613001565b5b0492506004810190505b60648310611f925760648381611f8857611f87613001565b5b0492506002810190505b600a8310611fa1576001810190505b80915050919050565b60008073ffffffffffffffffffffffffffffffffffffffff168373ffffffffffffffffffffffffffffffffffffffff161415801561206257508273ffffffffffffffffffffffffffffffffffffffff168473ffffffffffffffffffffffffffffffffffffffff161480612023575061202284846111b8565b5b8061206157508273ffffffffffffffffffffffffffffffffffffffff16612049836113ce565b73ffffffffffffffffffffffffffffffffffffffff16145b5b90509392505050565b60405180610120016040528060008152602001600081526020016060815260200160608152602001600081526020016000815260200160008152602001606081526020016000151581525090565b6040518060800160405280606081526020016060815260200160008152602001600081525090565b6000604051905090565b600080fd5b600080fd5b60007fffffffff0000000000000000000000000000000000000000000000000000000082169050919050565b61212a816120f5565b811461213557600080fd5b50565b60008135905061214781612121565b92915050565b600060208284031215612163576121626120eb565b5b600061217184828501612138565b91505092915050565b60008115159050919050565b61218f8161217a565b82525050565b60006020820190506121aa6000830184612186565b92915050565b600081519050919050565b600082825260208201905092915050565b60005b838110156121ea5780820151818401526020810190506121cf565b60008484015250505050565b6000601f19601f8301169050919050565b6000612212826121b0565b61221c81856121bb565b935061222c8185602086016121cc565b612235816121f6565b840191505092915050565b6000602082019050818103600083015261225a8184612207565b905092915050565b6000819050919050565b61227581612262565b811461228057600080fd5b50565b6000813590506122928161226c565b92915050565b6000602082840312156122ae576122ad6120eb565b5b60006122bc84828501612283565b91505092915050565b600073ffffffffffffffffffffffffffffffffffffffff82169050919050565b60006122f0826122c5565b9050919050565b612300816122e5565b82525050565b600060208201905061231b60008301846122f7565b92915050565b61232a816122e5565b811461233557600080fd5b50565b60008135905061234781612321565b92915050565b60008060408385031215612364576123636120eb565b5b600061237285828601612338565b925050602061238385828601612283565b9150509250929050565b61239681612262565b82525050565b6000610120820190506123b2600083018c61238d565b6123bf602083018b61238d565b81810360408301526123d1818a612207565b905081810360608301526123e58189612207565b90506123f4608083018861238d565b61240160a083018761238d565b61240e60c083018661238d565b81810360e08301526124208185612207565b9050612430610100830184612186565b9a9950505050505050505050565b600080600060608486031215612457576124566120eb565b5b600061246586828701612338565b935050602061247686828701612338565b925050604061248786828701612283565b9150509250925092565b61249a81612262565b82525050565b600082825260208201905092915050565b60006124bc826121b0565b6124c681856124a0565b93506124d68185602086016121cc565b6124df816121f6565b840191505092915050565b6124f38161217a565b82525050565b6000610120830160008301516125126000860182612491565b5060208301516125256020860182612491565b506040830151848203604086015261253d82826124b1565b9150506060830151848203606086015261255782826124b1565b915050608083015161256c6080860182612491565b5060a083015161257f60a0860182612491565b5060c083015161259260c0860182612491565b5060e083015184820360e08601526125aa82826124b1565b9150506101008301516125c16101008601826124ea565b508091505092915050565b600060208201905081810360008301526125e681846124f9565b905092915050565b6000608083016000830151848203600086015261260b82826124b1565b9150506020830151848203602086015261262582826124b1565b915050604083015161263a6040860182612491565b50606083015161264d6060860182612491565b508091505092915050565b6000602082019050818103600083015261267281846125ee565b905092915050565b600080fd5b600080fd5b7f4e487b7100000000000000000000000000000000000000000000000000000000600052604160045260246000fd5b6126bc826121f6565b810181811067ffffffffffffffff821117156126db576126da612684565b5b80604052505050565b60006126ee6120e1565b90506126fa82826126b3565b919050565b600067ffffffffffffffff82111561271a57612719612684565b5b612723826121f6565b9050602081019050919050565b82818337600083830152505050565b600061275261274d846126ff565b6126e4565b90508281526020810184848401111561276e5761276d61267f565b5b612779848285612730565b509392505050565b600082601f8301126127965761279561267a565b5b81356127a684826020860161273f565b91505092915050565b60008060008060008060c087890312156127cc576127cb6120eb565b5b600087013567ffffffffffffffff8111156127ea576127e96120f0565b5b6127f689828a01612781565b965050602087013567ffffffffffffffff811115612817576128166120f0565b5b61282389828a01612781565b955050604061283489828a01612283565b945050606061284589828a01612283565b935050608061285689828a01612283565b92505060a087013567ffffffffffffffff811115612877576128766120f0565b5b61288389828a01612781565b9150509295509295509295565b60006020820190506128a5600083018461238d565b92915050565b600060808201905081810360008301526128c58187612207565b905081810360208301526128d98186612207565b90506128e8604083018561238d565b6128f5606083018461238d565b95945050505050565b600060208284031215612914576129136120eb565b5b600061292284828501612338565b91505092915050565b6129348161217a565b811461293f57600080fd5b50565b6000813590506129518161292b565b92915050565b6000806040838503121561296e5761296d6120eb565b5b600061297c85828601612338565b925050602061298d85828601612942565b9150509250929050565b600067ffffffffffffffff8211156129b2576129b1612684565b5b6129bb826121f6565b9050602081019050919050565b60006129db6129d684612997565b6126e4565b9050828152602081018484840111156129f7576129f661267f565b5b612a02848285612730565b509392505050565b600082601f830112612a1f57612a1e61267a565b5b8135612a2f8482602086016129c8565b91505092915050565b60008060008060808587031215612a5257612a516120eb565b5b6000612a6087828801612338565b9450506020612a7187828801612338565b9350506040612a8287828801612283565b925050606085013567ffffffffffffffff811115612aa357612aa26120f0565b5b612aaf87828801612a0a565b91505092959194509250565b60008060408385031215612ad257612ad16120eb565b5b6000612ae085828601612338565b9250506020612af185828601612338565b9150509250929050565b7f4e487b7100000000000000000000000000000000000000000000000000000000600052602260045260246000fd5b60006002820490506001821680612b4257607f821691505b602082108103612b5557612b54612afb565b5b50919050565b6000606082019050612b7060008301866122f7565b612b7d602083018561238d565b612b8a60408301846122f7565b949350505050565b7f4e487b7100000000000000000000000000000000000000000000000000000000600052601160045260246000fd5b6000612bcc82612262565b91507fffffffffffffffffffffffffffffffffffffffffffffffffffffffffffffffff8203612bfe57612bfd612b92565b5b600182019050919050565b60008190508160005260206000209050919050565b60006020601f8301049050919050565b600082821b905092915050565b600060088302612c6b7fffffffffffffffffffffffffffffffffffffffffffffffffffffffffffffffff82612c2e565b612c758683612c2e565b95508019841693508086168417925050509392505050565b6000819050919050565b6000612cb2612cad612ca884612262565b612c8d565b612262565b9050919050565b6000819050919050565b612ccc83612c97565b612ce0612cd882612cb9565b848454612c3b565b825550505050565b600090565b612cf5612ce8565b612d00818484612cc3565b505050565b5b81811015612d2457612d19600082612ced565b600181019050612d06565b5050565b601f821115612d6957612d3a81612c09565b612d4384612c1e565b81016020851015612d52578190505b612d66612d5e85612c1e565b830182612d05565b50505b505050565b600082821c905092915050565b6000612d8c60001984600802612d6e565b1980831691505092915050565b6000612da58383612d7b565b9150826002028217905092915050565b612dbe826121b0565b67ffffffffffffffff811115612dd757612dd6612684565b5b612de18254612b2a565b612dec828285612d28565b600060209050601f831160018114612e1f5760008415612e0d578287015190505b612e178582612d99565b865550612e7f565b601f198416612e2d86612c09565b60005b82811015612e5557848901518255600182019150602085019450602081019050612e30565b86831015612e725784890151612e6e601f891682612d7b565b8355505b6001600288020188555050505b505050505050565b60006040820190508181036000830152612ea18185612207565b90508181036020830152612eb58184612207565b90509392505050565b600081905092915050565b6000612ed4826121b0565b612ede8185612ebe565b9350612eee8185602086016121cc565b80840191505092915050565b6000612f068285612ec9565b9150612f128284612ec9565b91508190509392505050565b600081519050919050565b600082825260208201905092915050565b6000612f4582612f1e565b612f4f8185612f29565b9350612f5f8185602086016121cc565b612f68816121f6565b840191505092915050565b6000608082019050612f8860008301876122f7565b612f9560208301866122f7565b612fa2604083018561238d565b8181036060830152612fb48184612f3a565b905095945050505050565b600081519050612fce81612121565b92915050565b600060208284031215612fea57612fe96120eb565b5b6000612ff884828501612fbf565b91505092915050565b7f4e487b7100000000000000000000000000000000000000000000000000000000600052601260045260246000fd5b600060408201905061304560008301856122f7565b613052602083018461238d565b939250505056fea2646970667358221220091ff9c29cb24b72548ca6798cdcb615ef81adb667ce4e46e33530a88792959764736f6c63430008140033",
  "linkReferences": {},
  "deployedLinkReferences": {}
}