{
  "_format": "hh-sol-artifact-1",
  "contractName": "PantheonCouncil",
  "sourceName": "contracts/PantheonCouncil.sol",
  "abi": [
    {
      "inputs": [],
      "stateMutability": "nonpayable",
      "type": "constructor"
    },
    {
      "inputs": [
        {
          "internalType": "address",
          "name": "sender",
          "type": "address"
        },
        {
          "internalType": "uint256",
          "name": "tokenId",
          "type": "uint256"
        },
        {
          "internalType": "address",
          "name": "owner",
          "type": "address"
        }
      ],
      "name": "ERC721IncorrectOwner",
      "type": "error"
    },
    {
      "inputs": [
        {
          "internalType": "address",
          "name": "operator",
          "type": "address"
        },
        {
          "internalType": "uint256",
          "name": "tokenId",
          "type": "uint256"
        }
      ],
      "name": "ERC721InsufficientApproval",
      "type": "error"
    },
    {
      "inputs": [
        {
          "internalType": "address",
          "name": "approver",
          "type": "address"
        }
      ],
      "name": "ERC721InvalidApprover",
      "type": "error"
    },
    {
      "inputs": [
        {
          "internalType": "address",
          "name": "operator",
          "type": "address"
        }
      ],
      "name": "ERC721InvalidOperator",
      "type": "error"
    },
    {
      "inputs": [
        {
          "internalType": "address",
          "name": "owner",
          "type": "address"
        }
      ],
      "name": "ERC721InvalidOwner",
      "type": "error"
    },
    {
      "inputs": [
        {
          "internalType": "address",
          "name": "receiver",
          "type": "address"
        }
      ],
      "name": "ERC721InvalidReceiver",
      "type": "error"
    },
    {
      "inputs": [
        {
          "internalType": "address",
          "name": "sender",
          "type": "address"
        }
      ],
      "name": "ERC721InvalidSender",
      "type": "error"
    },
    {
      "inputs": [
        {
          "internalType": "uint256",
          "name": "tokenId",
          "type": "uint256"
        }
      ],
      "name": "ERC721NonexistentToken",
      "type": "error"
    },
    {
      "inputs": [
        {
          "internalType": "address",
          "name": "owner",
          "type": "address"
        }
      ],
      "name": "OwnableInvalidOwner",
      "type": "error"
    },
    {
      "inputs": [
        {
          "internalType": "address",
          "name": "account",
          "type": "address"
        }
      ],
      "name": "OwnableUnauthorizedAccount",
      "type": "error"
    },
    {
      "anonymous": false,
      "inputs": [
        {
          "indexed": true,
          "internalType": "address",
          "name": "owner",
          "type": "address"
        },
        {
          "indexed": true,
          "internalType": "address",
          "name": "approved",
          "type": "address"
        },
        {
          "indexed": true,
          "internalType": "uint256",
          "name": "tokenId",
          "type": "uint256"
        }
      ],
      "name": "Approval",
      "type": "event"
    },
    {
      "anonymous": false,
      "inputs": [
        {
          "indexed": true,
          "internalType": "address",
          "name": "owner",
          "type": "address"
        },
        {
          "indexed": true,
          "internalType": "address",
          "name": "operator",
          "type": "address"
        },
        {
          "indexed": false,
          "internalType": "bool",
          "name": "approved",
          "type": "bool"
        }
      ],
      "name": "ApprovalForAll",
      "type": "event"
    },
    {
      "anonymous": false,
      "inputs": [
        {
          "indexed": true,
          "internalType": "uint256",
          "name": "debateId",
          "type": "uint256"
        },
        {
          "indexed": false,
          "internalType": "string",
          "name": "symbol",
          "type": "string"
        },
        {
          "indexed": false,
          "internalType": "string",
          "name": "consensus",
          "type": "string"
        },
        {
          "indexed": false,
          "internalType": "uint256",
          "name": "finalConfidence",
          "type": "uint256"
        }
      ],
      "name": "DebateRecorded",
      "type": "event"
    },
    {
      "anonymous": false,
      "inputs": [
        {
          "indexed": true,
          "internalType": "address",
          "name": "previousOwner",
          "type": "address"
        },
        {
          "indexed": true,
          "internalType": "address",
          "name": "newOwner",
          "type": "address"
        }
      ],
      "name": "OwnershipTransferred",
      "type": "event"
    },
    {
      "anonymous": false,
      "inputs": [
        {
          "indexed": true,
          "internalType": "uint256",
          "name": "tradeId",
          "type": "uint256"
        },
        {
          "indexed": false,
          "internalType": "string",
          "name": "symbol",
          "type": "string"
        },
        {
          "indexed": false,
          "internalType": "string",
          "name": "side",
          "type": "string"
        }
      ],
      "name": "TradeRecorded",
      "type": "event"
    },
    {
      "anonymous": false,
      "inputs": [
        {
          "indexed": true,
          "internalType": "address",
          "name": "from",
          "type": "address"
        },
        {
          "indexed": true,
          "internalType": "address",
          "name": "to",
          "type": "address"
        },
        {
          "indexed": true,
          "internalType": "uint256",
          "name": "tokenId",
          "type": "uint256"
        }
      ],
      "name": "Transfer",
      "type": "event"
    },
    {
      "inputs": [
        {
          "internalType": "uint256",
          "name": "",
          "type": "uint256"
        }
      ],
      "name": "agents",
      "outputs": [
        {
          "internalType": "string",
          "name": "name",
          "type": "string"
        },
        {
          "internalType": "string",
          "name": "personality",
          "type": "string"
        },
        {
          "internalType": "uint256",
          "name": "totalTrades",
          "type": "uint256"
        },
        {
          "internalType": "uint256",
          "name": "performanceScore",
          "type": "uint256"
        }
      ],
      "stateMutability": "view",
      "type": "function"
    },
    {
      "inputs": [
        {
          "internalType": "address",
          "name": "to",
          "type": "address"
        },
        {
          "internalType": "uint256",
          "name": "tokenId",
          "type": "uint256"
        }
      ],
      "name": "approve",
      "outputs": [],
      "stateMutability": "nonpayable",
      "type": "function"
    },
    {
      "inputs": [
        {
          "internalType": "address",
          "name": "owner",
          "type": "address"
        }
      ],
      "name": "balanceOf",
      "outputs": [
        {
          "internalType": "uint256",
          "name": "",
          "type": "uint256"
        }
      ],
      "stateMutability": "view",
      "type": "function"
    },
    {
      "inputs": [
        {
          "internalType": "uint256",
          "name": "",
          "type": "uint256"
        }
      ],
      "name": "debates",
      "outputs": [
        {
          "internalType": "uint256",
          "name": "id",
          "type": "uint256"
        },
        {
          "internalType": "uint256",
          "name": "timestamp",
          "type": "uint256"
        },
        {
          "internalType": "string",
          "name": "symbol",
          "type": "string"
        },
        {
          "internalType": "string",
          "name": "analystView",
          "type": "string"
        },
        {
          "internalType": "string",
          "name": "skepticView",
          "type": "string"
        },
        {
          "internalType": "string",
          "name": "degenView",
          "type": "string"
        },
        {
          "internalType": "string",
          "name": "consensus",
          "type": "string"
        },
        {
          "internalType": "uint256",
          "name": "finalConfidence",
          "type": "uint256"
        },
        {
          "internalType": "address",
          "name": "recorder",
          "type": "address"
        }
      ],
      "stateMutability": "view",
      "type": "function"
    },
    {
      "inputs": [
        {
          "internalType": "uint256",
          "name": "tokenId",
          "type": "uint256"
        }
      ],
      "name": "getAgent",
      "outputs": [
        {
          "components": [
            {
              "internalType": "string",
              "name": "name",
              "type": "string"
            },
            {
              "internalType": "string",
              "name": "personality",
              "type": "string"
            },
            {
              "internalType": "uint256",
              "name": "totalTrades",
              "type": "uint256"
            },
            {
              "internalType": "uint256",
              "name": "performanceScore",
              "type": "uint256"
            }
          ],
          "internalType": "struct PantheonCouncil.AgentNFT",
          "name": "",
          "type": "tuple"
        }
      ],
      "stateMutability": "view",
      "type": "function"
    },
    {
      "inputs": [
        {
          "internalType": "uint256",
          "name": "tokenId",
          "type": "uint256"
        }
      ],
      "name": "getApproved",
      "outputs": [
        {
          "internalType": "address",
          "name": "",
          "type": "address"
        }
      ],
      "stateMutability": "view",
      "type": "function"
    },
    {
      "inputs": [
        {
          "internalType": "uint256",
          "name": "debateId",
          "type": "uint256"
        }
      ],
      "name": "getDebate",
      "outputs": [
        {
          "components": [
            {
              "internalType": "uint256",
              "name": "id",
              "type": "uint256"
            },
            {
              "internalType": "uint256",
              "name": "timestamp",
              "type": "uint256"
            },
            {
              "internalType": "string",
              "name": "symbol",
              "type": "string"
            },
            {
              "internalType": "string",
              "name": "analystView",
              "type": "string"
            },
            {
              "internalType": "string",
              "name": "skepticView",
              "type": "string"
            },
            {
              "internalType": "string",
              "name": "degenView",
              "type": "string"
            },
            {
              "internalType": "string",
              "name": "consensus",
              "type": "string"
            },
            {
              "internalType": "uint256",
              "name": "finalConfidence",
              "type": "uint256"
            },
            {
              "internalType": "address",
              "name": "recorder",
              "type": "address"
            }
          ],
          "internalType": "struct PantheonCouncil.Debate",
          "name": "",
          "type": "tuple"
        }
      ],
      "stateMutability": "view",
      "type": "function"
    },
    {
      "inputs": [],
      "name": "getLatestDebate",
      "outputs": [
        {
          "components": [
            {
              "internalType": "uint256",
              "name": "id",
              "type": "uint256"
            },
            {
              "internalType": "uint256",
              "name": "timestamp",
              "type": "uint256"
            },
            {
              "internalType": "string",
              "name": "symbol",
              "type": "string"
            },
            {
              "internalType": "string",
              "name": "analystView",
              "type": "string"
            },
            {
              "internalType": "string",
              "name": "skepticView",
              "type": "string"
            },
            {
              "internalType": "string",
              "name": "degenView",
              "type": "string"
            },
            {
              "internalType": "string",
              "name": "consensus",
              "type": "string"
            },
            {
              "internalType": "uint256",
              "name": "finalConfidence",
              "type": "uint256"
            },
            {
              "internalType": "address",
              "name": "recorder",
              "type": "address"
            }
          ],
          "internalType": "struct PantheonCouncil.Debate",
          "name": "",
          "type": "tuple"
        }
      ],
      "stateMutability": "view",
      "type": "function"
    },
    {
      "inputs": [],
      "name": "getTotalDebates",
      "outputs": [
        {
          "internalType": "uint256",
          "name": "",
          "type": "uint256"
        }
      ],
      "stateMutability": "view",
      "type": "function"
    },
    {
      "inputs": [],
      "name": "getTotalTrades",
      "outputs": [
        {
          "internalType": "uint256",
          "name": "",
          "type": "uint256"
        }
      ],
      "stateMutability": "view",
      "type": "function"
    },
    {
      "inputs": [
        {
          "internalType": "uint256",
          "name": "tradeId",
          "type": "uint256"
        }
      ],
      "name": "getTrade",
      "outputs": [
        {
          "components": [
            {
              "internalType": "uint256",
              "name": "id",
              "type": "uint256"
            },
            {
              "internalType": "uint256",
              "name": "timestamp",
              "type": "uint256"
            },
            {
              "internalType": "string",
              "name": "symbol",
              "type": "string"
            },
            {
              "internalType": "string",
              "name": "side",
              "type": "string"
            },
            {
              "internalType": "uint256",
              "name": "entryPrice",
              "type": "uint256"
            },
            {
              "internalType": "uint256",
              "name": "quantity",
              "type": "uint256"
            },
            {
              "internalType": "uint256",
              "name": "confidence",
              "type": "uint256"
            },
            {
              "internalType": "string",
              "name": "verdict",
              "type": "string"
            },
            {
              "internalType": "bool",
              "name": "executed",
              "type": "bool"
            }
          ],
          "internalType": "struct PantheonCouncil.Trade",
          "name": "",
          "type": "tuple"
        }
      ],
      "stateMutability": "view",
      "type": "function"
    },
    {
      "inputs": [
        {
          "internalType": "address",
          "name": "owner",
          "type": "address"
        },
        {
          "internalType": "address",
          "name": "operator",
          "type": "address"
        }
      ],
      "name": "isApprovedForAll",
      "outputs": [
        {
          "internalType": "bool",
          "name": "",
          "type": "bool"
        }
      ],
      "stateMutability": "view",
      "type": "function"
    },
    {
      "inputs": [],
      "name": "name",
      "outputs": [
        {
          "internalType": "string",
          "name": "",
          "type": "string"
        }
      ],
      "stateMutability": "view",
      "type": "function"
    },
    {
      "inputs": [],
      "name": "owner",
      "outputs": [
        {
          "internalType": "address",
          "name": "",
          "type": "address"
        }
      ],
      "stateMutability": "view",
      "type": "function"
    },
    {
      "inputs": [
        {
          "internalType": "uint256",
          "name": "tokenId",
          "type": "uint256"
        }
      ],
      "name": "ownerOf",
      "outputs": [
        {
          "internalType": "address",
          "name": "",
          "type": "address"
        }
      ],
      "stateMutability": "view",
      "type": "function"
    },
    {
      "inputs": [
        {
          "internalType": "string",
          "name": "analystView",
          "type": "string"
        },
        {
          "internalType": "string",
          "name": "skepticView",
          "type": "string"
        },
        {
          "internalType": "string",
          "name": "degenView",
          "type": "string"
        },
        {
          "internalType": "string",
          "name": "consensus",
          "type": "string"
        },
        {
          "internalType": "uint256",
          "name": "finalConfidence",
          "type": "uint256"
        }
      ],
      "name": "recordDebate",
      "outputs": [
        {
          "internalType": "uint256",
          "name": "",
          "type": "uint256"
        }
      ],
      "stateMutability": "nonpayable",
      "type": "function"
    },
    {
      "inputs": [
        {
          "internalType": "string",
          "name": "symbol",
          "type": "string"
        },
        {
          "internalType": "string",
          "name": "side",
          "type": "string"
        },
        {
          "internalType": "uint256",
          "name": "entryPrice",
          "type": "uint256"
        },
        {
          "internalType": "uint256",
          "name": "quantity",
          "type": "uint256"
        },
        {
          "internalType": "uint256",
          "name": "confidence",
          "type": "uint256"
        },
        {
          "internalType": "string",
          "name": "verdict",
          "type": "string"
        }
      ],
      "name": "recordTrade",
      "outputs": [
        {
          "internalType": "uint256",
          "name": "",
          "type": "uint256"
        }
      ],
      "stateMutability": "nonpayable",
      "type": "function"
    },
    {
      "inputs": [],
      "name": "renounceOwnership",
      "outputs": [],
      "stateMutability": "nonpayable",
      "type": "function"
    },
    {
      "inputs": [
        {
          "internalType": "address",
          "name": "from",
          "type": "address"
        },
        {
          "internalType": "address",
          "name": "to",
          "type": "address"
        },
        {
          "internalType": "uint256",
          "name": "tokenId",
          "type": "uint256"
        }
      ],
      "name": "safeTransferFrom",
      "outputs": [],
      "stateMutability": "nonpayable",
      "type": "function"
    },
    {
      "inputs": [
        {
          "internalType": "address",
          "name": "from",
          "type": "address"
        },
        {
          "internalType": "address",
          "name": "to",
          "type": "address"
        },
        {
          "internalType": "uint256",
          "name": "tokenId",
          "type": "uint256"
        },
        {
          "internalType": "bytes",
          "name": "data",
          "type": "bytes"
        }
      ],
      "name": "safeTransferFrom",
      "outputs": [],
      "stateMutability": "nonpayable",
      "type": "function"
    },
    {
      "inputs": [
        {
          "internalType": "address",
          "name": "operator",
          "type": "address"
        },
        {
          "internalType": "bool",
          "name": "approved",
          "type": "bool"
        }
      ],
      "name": "setApprovalForAll",
      "outputs": [],
      "stateMutability": "nonpayable",
      "type": "function"
    },
    {
      "inputs": [
        {
          "internalType": "bytes4",
          "name": "interfaceId",
          "type": "bytes4"
        }
      ],
      "name": "supportsInterface",
      "outputs": [
        {
          "internalType": "bool",
          "name": "",
          "type": "bool"
        }
      ],
      "stateMutability": "view",
      "type": "function"
    },
    {
      "inputs": [],
      "name": "symbol",
      "outputs": [
        {
          "internalType": "string",
          "name": "",
          "type": "string"
        }
      ],
      "stateMutability": "view",
      "type": "function"
    },
    {
      "inputs": [
        {
          "internalType": "uint256",
          "name": "tokenId",
          "type": "uint256"
        }
      ],
      "name": "tokenURI",
      "outputs": [
        {
          "internalType": "string",
          "name": "",
          "type": "string"
        }
      ],
      "stateMutability": "view",
      "type": "function"
    },
    {
      "inputs": [
        {
          "internalType": "uint256",
          "name": "",
          "type": "uint256"
        }
      ],
      "name": "trades",
      "outputs": [
        {
          "internalType": "uint256",
          "name": "id",
          "type": "uint256"
        },
        {
          "internalType": "uint256",
          "name": "timestamp",
          "type": "uint256"
        },
        {
          "internalType": "string",
          "name": "symbol",
          "type": "string"
        },
        {
          "internalType": "string",
          "name": "side",
          "type": "string"
        },
        {
          "internalType": "uint256",
          "name": "entryPrice",
          "type": "uint256"
        },
        {
          "internalType": "uint256",
          "name": "quantity",
          "type": "uint256"
        },
        {
          "internalType": "uint256",
          "name": "confidence",
          "type": "uint256"
        },
        {
          "internalType": "string",
          "name": "verdict",
          "type": "string"
        },
        {
          "internalType": "bool",
          "name": "executed",
          "type": "bool"
        }
      ],
      "stateMutability": "view",
      "type": "function"
    },
    {
      "inputs": [
        {
          "internalType": "address",
          "name": "from",
          "type": "address"
        },
        {
          "internalType": "address",
          "name": "to",
          "type": "address"
        },
        {
          "internalType": "uint256",
          "name": "tokenId",
          "type": "uint256"
        }
      ],
      "name": "transferFrom",
      "outputs": [],
      "stateMutability": "nonpayable",
      "type": "function"
    },
    {
      "inputs": [
        {
          "internalType": "address",
          "name": "newOwner",
          "type": "address"
        }
      ],
      "name": "transferOwnership",
      "outputs": [],
      "stateMutability": "nonpayable",
      "type": "function"
    }
  ],
  "bytecode": "0x60806040523480156200001157600080fd5b50336040518060400160405280600e81526020017f50616e7468656f6e204167656e740000000000000000000000000000000000008152506040518060400160405280600681526020017f504147454e54000000000000000000000000000000000000000000000000000081525081600090816200009091906200112e565b508060019081620000a291906200112e565b505050600073ffffffffffffffffffffffffffffffffffffffff168173ffffffffffffffffffffffffffffffffffffffff16036200011a5760006040517f1e4fbdf70000000000000000000000000000000000000000000000000000000081526004016200011191906200125a565b60405180910390fd5b6200012b81620002ac60201b60201c565b50620001a9336040518060400160405280600781526020017f416e616c797374000000000000000000000000000000000000000000000000008152506040518060400160405280601d81526020017f446174612d64726976656e20746563686e6963616c20616e616c7973740000008152506200037260201b60201c565b5062000227336040518060400160405280600781526020017f536b6570746963000000000000000000000000000000000000000000000000008152506040518060400160405280601f81526020017f5269736b2d666f637573656420636f6e7472617269616e207468696e6b6572008152506200037260201b60201c565b50620002a5336040518060400160405280600581526020017f446567656e0000000000000000000000000000000000000000000000000000008152506040518060400160405280601a81526020017f41676772657373697665206d6f6d656e74756d207472616465720000000000008152506200037260201b60201c565b50620014d0565b6000600660009054906101000a900473ffffffffffffffffffffffffffffffffffffffff16905081600660006101000a81548173ffffffffffffffffffffffffffffffffffffffff021916908373ffffffffffffffffffffffffffffffffffffffff1602179055508173ffffffffffffffffffffffffffffffffffffffff168173ffffffffffffffffffffffffffffffffffffffff167f8be0079c531659141344cd1fd0a4f28419497f9722a3daafe3b4186f6b6457e060405160405180910390a35050565b600080600860008154809291906200038a90620012a6565b919050559050620003a285826200042a60201b60201c565b6040518060800160405280858152602001848152602001600081526020016032815250600b60008381526020019081526020016000206000820151816000019081620003ef91906200112e565b5060208201518160010190816200040791906200112e565b506040820151816002015560608201518160030155905050809150509392505050565b6200044c8282604051806020016040528060008152506200045060201b60201c565b5050565b6200046283836200048c60201b60201c565b62000487620004766200059360201b60201c565b60008585856200059b60201b60201c565b505050565b600073ffffffffffffffffffffffffffffffffffffffff168273ffffffffffffffffffffffffffffffffffffffff1603620005015760006040517f64a0ae92000000000000000000000000000000000000000000000000000000008152600401620004f891906200125a565b60405180910390fd5b600062000517838360006200075b60201b60201c565b9050600073ffffffffffffffffffffffffffffffffffffffff168173ffffffffffffffffffffffffffffffffffffffff16146200058e5760006040517f73c6ac6e0000000000000000000000000000000000000000000000000000000081526004016200058591906200125a565b60405180910390fd5b505050565b600033905090565b60008373ffffffffffffffffffffffffffffffffffffffff163b111562000754578273ffffffffffffffffffffffffffffffffffffffff1663150b7a02868685856040518563ffffffff1660e01b8152600401620005fd94939291906200139e565b6020604051808303816000875af19250505080156200063c57506040513d601f19601f8201168201806040525081019062000639919062001454565b60015b620006c6573d80600081146200066f576040519150601f19603f3d011682016040523d82523d6000602084013e62000674565b606091505b506000815103620006be57836040517f64a0ae92000000000000000000000000000000000000000000000000000000008152600401620006b591906200125a565b60405180910390fd5b805160208201fd5b63150b7a0260e01b7bffffffffffffffffffffffffffffffffffffffffffffffffffffffff1916817bffffffffffffffffffffffffffffffffffffffffffffffffffffffff1916146200075257836040517f64a0ae920000000000000000000000000000000000000000000000000000000081526004016200074991906200125a565b60405180910390fd5b505b5050505050565b6000806200076f846200099060201b60201c565b9050600073ffffffffffffffffffffffffffffffffffffffff168373ffffffffffffffffffffffffffffffffffffffff1614620007ba57620007b9818486620009cd60201b60201c565b5b600073ffffffffffffffffffffffffffffffffffffffff168173ffffffffffffffffffffffffffffffffffffffff161462000854576200080560008560008062000a9f60201b60201c565b6001600360008373ffffffffffffffffffffffffffffffffffffffff1673ffffffffffffffffffffffffffffffffffffffff168152602001908152602001600020600082825403925050819055505b600073ffffffffffffffffffffffffffffffffffffffff168573ffffffffffffffffffffffffffffffffffffffff1614620008d8576001600360008773ffffffffffffffffffffffffffffffffffffffff1673ffffffffffffffffffffffffffffffffffffffff168152602001908152602001600020600082825401925050819055505b846002600086815260200190815260200160002060006101000a81548173ffffffffffffffffffffffffffffffffffffffff021916908373ffffffffffffffffffffffffffffffffffffffff160217905550838573ffffffffffffffffffffffffffffffffffffffff168273ffffffffffffffffffffffffffffffffffffffff167fddf252ad1be2c89b69c2b068fc378daa952ba7f163c4a11628f55a4df523b3ef60405160405180910390a4809150509392505050565b60006002600083815260200190815260200160002060009054906101000a900473ffffffffffffffffffffffffffffffffffffffff169050919050565b620009e083838362000c7c60201b60201c565b62000a9a57600073ffffffffffffffffffffffffffffffffffffffff168373ffffffffffffffffffffffffffffffffffffffff160362000a5957806040517f7e27328900000000000000000000000000000000000000000000000000000000815260040162000a50919062001486565b60405180910390fd5b81816040517f177e802f00000000000000000000000000000000000000000000000000000000815260040162000a91929190620014a3565b60405180910390fd5b505050565b808062000ad95750600073ffffffffffffffffffffffffffffffffffffffff168273ffffffffffffffffffffffffffffffffffffffff1614155b1562000c2457600062000af28462000d5060201b60201c565b9050600073ffffffffffffffffffffffffffffffffffffffff168373ffffffffffffffffffffffffffffffffffffffff161415801562000b5e57508273ffffffffffffffffffffffffffffffffffffffff168173ffffffffffffffffffffffffffffffffffffffff1614155b801562000b7a575062000b78818462000de360201b60201c565b155b1562000bbf57826040517fa9fbf51f00000000000000000000000000000000000000000000000000000000815260040162000bb691906200125a565b60405180910390fd5b811562000c2257838573ffffffffffffffffffffffffffffffffffffffff168273ffffffffffffffffffffffffffffffffffffffff167f8c5be1e5ebec7d5bd14f71427d1e84f3dd0314c0f7b2291e5b200ac8c7c3b92560405160405180910390a45b505b836004600085815260200190815260200160002060006101000a81548173ffffffffffffffffffffffffffffffffffffffff021916908373ffffffffffffffffffffffffffffffffffffffff16021790555050505050565b60008073ffffffffffffffffffffffffffffffffffffffff168373ffffffffffffffffffffffffffffffffffffffff161415801562000d4757508273ffffffffffffffffffffffffffffffffffffffff168473ffffffffffffffffffffffffffffffffffffffff16148062000cff575062000cfe848462000de360201b60201c565b5b8062000d4657508273ffffffffffffffffffffffffffffffffffffffff1662000d2e8362000e7760201b60201c565b73ffffffffffffffffffffffffffffffffffffffff16145b5b90509392505050565b60008062000d64836200099060201b60201c565b9050600073ffffffffffffffffffffffffffffffffffffffff168173ffffffffffffffffffffffffffffffffffffffff160362000dda57826040517f7e27328900000000000000000000000000000000000000000000000000000000815260040162000dd1919062001486565b60405180910390fd5b80915050919050565b6000600560008473ffffffffffffffffffffffffffffffffffffffff1673ffffffffffffffffffffffffffffffffffffffff16815260200190815260200160002060008373ffffffffffffffffffffffffffffffffffffffff1673ffffffffffffffffffffffffffffffffffffffff16815260200190815260200160002060009054906101000a900460ff16905092915050565b60006004600083815260200190815260200160002060009054906101000a900473ffffffffffffffffffffffffffffffffffffffff169050919050565b600081519050919050565b7f4e487b7100000000000000000000000000000000000000000000000000000000600052604160045260246000fd5b7f4e487b7100000000000000000000000000000000000000000000000000000000600052602260045260246000fd5b6000600282049050600182168062000f3657607f821691505b60208210810362000f4c5762000f4b62000eee565b5b50919050565b60008190508160005260206000209050919050565b60006020601f8301049050919050565b600082821b905092915050565b60006008830262000fb67fffffffffffffffffffffffffffffffffffffffffffffffffffffffffffffffff8262000f77565b62000fc2868362000f77565b95508019841693508086168417925050509392505050565b6000819050919050565b6000819050919050565b60006200100f62001009620010038462000fda565b62000fe4565b62000fda565b9050919050565b6000819050919050565b6200102b8362000fee565b620010436200103a8262001016565b84845462000f84565b825550505050565b600090565b6200105a6200104b565b6200106781848462001020565b505050565b5b818110156200108f576200108360008262001050565b6001810190506200106d565b5050565b601f821115620010de57620010a88162000f52565b620010b38462000f67565b81016020851015620010c3578190505b620010db620010d28562000f67565b8301826200106c565b50505b505050565b600082821c905092915050565b60006200110360001984600802620010e3565b1980831691505092915050565b60006200111e8383620010f0565b9150826002028217905092915050565b620011398262000eb4565b67ffffffffffffffff81111562001155576200115462000ebf565b5b62001161825462000f1d565b6200116e82828562001093565b600060209050601f831160018114620011a6576000841562001191578287015190505b6200119d858262001110565b8655506200120d565b601f198416620011b68662000f52565b60005b82811015620011e057848901518255600182019150602085019450602081019050620011b9565b86831015620012005784890151620011fc601f891682620010f0565b8355505b6001600288020188555050505b505050505050565b600073ffffffffffffffffffffffffffffffffffffffff82169050919050565b6000620012428262001215565b9050919050565b620012548162001235565b82525050565b600060208201905062001271600083018462001249565b92915050565b7f4e487b7100000000000000000000000000000000000000000000000000000000600052601160045260246000fd5b6000620012b38262000fda565b91507fffffffffffffffffffffffffffffffffffffffffffffffffffffffffffffffff8203620012e857620012e762001277565b5b600182019050919050565b620012fe8162000fda565b82525050565b600081519050919050565b600082825260208201905092915050565b60005b838110156200134057808201518184015260208101905062001323565b60008484015250505050565b6000601f19601f8301169050919050565b60006200136a8262001304565b6200137681856200130f565b93506200138881856020860162001320565b62001393816200134c565b840191505092915050565b6000608082019050620013b5600083018762001249565b620013c4602083018662001249565b620013d36040830185620012f3565b8181036060830152620013e781846200135d565b905095945050505050565b600080fd5b60007fffffffff0000000000000000000000000000000000000000000000000000000082169050919050565b6200142e81620013f7565b81146200143a57600080fd5b50565b6000815190506200144e8162001423565b92915050565b6000602082840312156200146d576200146c620013f2565b5b60006200147d848285016200143d565b91505092915050565b60006020820190506200149d6000830184620012f3565b92915050565b6000604082019050620014ba600083018562001249565b620014c96020830184620012f3565b9392505050565b61425280620014e06000396000f3fe608060405234801561001057600080fd5b50600436106101a95760003560e01c806359758fcf116100f957806398d336af11610097578063c87b56dd11610071578063c87b56dd1461052d578063e985e9c51461055d578063ebd34f501461058d578063f2fde38b146105ab576101a9565b806398d336af146104c5578063a22cb465146104f5578063b88d4fde14610511576101a9565b80637110caca116100d35780637110caca1461044f578063715018a61461047f5780638da5cb5b1461048957806395d89b41146104a7576101a9565b806359758fcf146103b75780636352211e146103ef57806370a082311461041f576101a9565b806323b872dd116101665780633461f164116101405780633461f1641461031a57806342842e0e14610338578063479ced4214610354578063513856c814610384576101a9565b806323b872dd1461029e5780632db25e05146102ba5780632de5aaf7146102ea576101a9565b806301ffc9a7146101ae57806306fdde03146101de5780630773f250146101fc578063081812fc1461021a578063095ea7b31461024a5780631e6c598e14610266575b600080fd5b6101c860048036038101906101c39190612f34565b6105c7565b6040516101d59190612f7c565b60405180910390f35b6101e66106a9565b6040516101f39190613027565b60405180910390f35b61020461073b565b60405161021191906131ce565b60405180910390f35b610234600480360381019061022f919061321c565b610b08565b6040516102419190613258565b60405180910390f35b610264600480360381019061025f919061329f565b610b24565b005b610280600480360381019061027b919061321c565b610b3a565b604051610295999897969594939291906132ee565b60405180910390f35b6102b860048036038101906102b39190613390565b610d2d565b005b6102d460048036038101906102cf919061321c565b610e2f565b6040516102e191906134c5565b60405180910390f35b61030460048036038101906102ff919061321c565b611060565b6040516103119190613551565b60405180910390f35b6103226111c5565b60405161032f9190613573565b60405180910390f35b610352600480360381019061034d9190613390565b6111cf565b005b61036e600480360381019061036991906136c3565b6111ef565b60405161037b9190613573565b60405180910390f35b61039e6004803603810190610399919061321c565b61134a565b6040516103ae94939291906137a4565b60405180910390f35b6103d160048036038101906103cc919061321c565b61148a565b6040516103e6999897969594939291906137f7565b60405180910390f35b6104096004803603810190610404919061321c565b6117a0565b6040516104169190613258565b60405180910390f35b610439600480360381019061043491906138a7565b6117b2565b6040516104469190613573565b60405180910390f35b610469600480360381019061046491906138d4565b61186c565b6040516104769190613573565b60405180910390f35b610487611a4d565b005b610491611a61565b60405161049e9190613258565b60405180910390f35b6104af611a8b565b6040516104bc9190613027565b60405180910390f35b6104df60048036038101906104da919061321c565b611b1d565b6040516104ec91906131ce565b60405180910390f35b61050f600480360381019061050a91906139eb565b611e99565b005b61052b60048036038101906105269190613acc565b611eaf565b005b6105476004803603810190610542919061321c565b611ed4565b6040516105549190613027565b60405180910390f35b61057760048036038101906105729190613b4f565b611f3d565b6040516105849190612f7c565b60405180910390f35b610595611fd1565b6040516105a29190613573565b60405180910390f35b6105c560048036038101906105c091906138a7565b611fdb565b005b60007f80ac58cd000000000000000000000000000000000000000000000000000000007bffffffffffffffffffffffffffffffffffffffffffffffffffffffff1916827bffffffffffffffffffffffffffffffffffffffffffffffffffffffff1916148061069257507f5b5e139f000000000000000000000000000000000000000000000000000000007bffffffffffffffffffffffffffffffffffffffffffffffffffffffff1916827bffffffffffffffffffffffffffffffffffffffffffffffffffffffff1916145b806106a257506106a182612061565b5b9050919050565b6060600080546106b890613bbe565b80601f01602080910402602001604051908101604052809291908181526020018280546106e490613bbe565b80156107315780601f1061070657610100808354040283529160200191610731565b820191906000526020600020905b81548152906001019060200180831161071457829003601f168201915b5050505050905090565b610743612df0565b600060095411610788576040517f08c379a000000000000000000000000000000000000000000000000000000000815260040161077f90613c3b565b60405180910390fd5b600c6000600160095461079b9190613c8a565b81526020019081526020016000206040518061012001604052908160008201548152602001600182015481526020016002820180546107d990613bbe565b80601f016020809104026020016040519081016040528092919081815260200182805461080590613bbe565b80156108525780601f1061082757610100808354040283529160200191610852565b820191906000526020600020905b81548152906001019060200180831161083557829003601f168201915b5050505050815260200160038201805461086b90613bbe565b80601f016020809104026020016040519081016040528092919081815260200182805461089790613bbe565b80156108e45780601f106108b9576101008083540402835291602001916108e4565b820191906000526020600020905b8154815290600101906020018083116108c757829003601f168201915b505050505081526020016004820180546108fd90613bbe565b80601f016020809104026020016040519081016040528092919081815260200182805461092990613bbe565b80156109765780601f1061094b57610100808354040283529160200191610976565b820191906000526020600020905b81548152906001019060200180831161095957829003601f168201915b5050505050815260200160058201805461098f90613bbe565b80601f01602080910402602001604051908101604052809291908181526020018280546109bb90613bbe565b8015610a085780601f106109dd57610100808354040283529160200191610a08565b820191906000526020600020905b8154815290600101906020018083116109eb57829003601f168201915b50505050508152602001600682018054610a2190613bbe565b80601f0160208091040260200160405190810160405280929190818152602001828054610a4d90613bbe565b8015610a9a5780601f10610a6f57610100808354040283529160200191610a9a565b820191906000526020600020905b815481529060010190602001808311610a7d57829003601f168201915b50505050508152602001600782015481526020016008820160009054906101000a900473ffffffffffffffffffffffffffffffffffffffff1673ffffffffffffffffffffffffffffffffffffffff1673ffffffffffffffffffffffffffffffffffffffff1681525050905090565b6000610b13826120cb565b50610b1d82612153565b9050919050565b610b368282610b31612190565b612198565b5050565b600a602052806000526040600020600091509050806000015490806001015490806002018054610b6990613bbe565b80601f0160208091040260200160405190810160405280929190818152602001828054610b9590613bbe565b8015610be25780601f10610bb757610100808354040283529160200191610be2565b820191906000526020600020905b815481529060010190602001808311610bc557829003601f168201915b505050505090806003018054610bf790613bbe565b80601f0160208091040260200160405190810160405280929190818152602001828054610c2390613bbe565b8015610c705780601f10610c4557610100808354040283529160200191610c70565b820191906000526020600020905b815481529060010190602001808311610c5357829003601f168201915b505050505090806004015490806005015490806006015490806007018054610c9790613bbe565b80601f0160208091040260200160405190810160405280929190818152602001828054610cc390613bbe565b8015610d105780601f10610ce557610100808354040283529160200191610d10565b820191906000526020600020905b815481529060010190602001808311610cf357829003601f168201915b5050505050908060080160009054906101000a900460ff16905089565b600073ffffffffffffffffffffffffffffffffffffffff168273ffffffffffffffffffffffffffffffffffffffff1603610d9f5760006040517f64a0ae92000000000000000000000000000000000000000000000000000000008152600401610d969190613258565b60405180910390fd5b6000610db38383610dae612190565b6121aa565b90508373ffffffffffffffffffffffffffffffffffffffff168173ffffffffffffffffffffffffffffffffffffffff1614610e29578382826040517f64283d7b000000000000000000000000000000000000000000000000000000008152600401610e2093929190613cbe565b60405180910390fd5b50505050565b610e37612e52565b600a6000838152602001908152602001600020604051806101200160405290816000820154815260200160018201548152602001600282018054610e7a90613bbe565b80601f0160208091040260200160405190810160405280929190818152602001828054610ea690613bbe565b8015610ef35780601f10610ec857610100808354040283529160200191610ef3565b820191906000526020600020905b815481529060010190602001808311610ed657829003601f168201915b50505050508152602001600382018054610f0c90613bbe565b80601f0160208091040260200160405190810160405280929190818152602001828054610f3890613bbe565b8015610f855780601f10610f5a57610100808354040283529160200191610f85565b820191906000526020600020905b815481529060010190602001808311610f6857829003601f168201915b50505050508152602001600482015481526020016005820154815260200160068201548152602001600782018054610fbc90613bbe565b80601f0160208091040260200160405190810160405280929190818152602001828054610fe890613bbe565b80156110355780601f1061100a57610100808354040283529160200191611035565b820191906000526020600020905b81548152906001019060200180831161101857829003601f168201915b505050505081526020016008820160009054906101000a900460ff1615151515815250509050919050565b611068612ea0565b600b600083815260200190815260200160002060405180608001604052908160008201805461109690613bbe565b80601f01602080910402602001604051908101604052809291908181526020018280546110c290613bbe565b801561110f5780601f106110e45761010080835404028352916020019161110f565b820191906000526020600020905b8154815290600101906020018083116110f257829003601f168201915b5050505050815260200160018201805461112890613bbe565b80601f016020809104026020016040519081016040528092919081815260200182805461115490613bbe565b80156111a15780601f10611176576101008083540402835291602001916111a1565b820191906000526020600020905b81548152906001019060200180831161118457829003601f168201915b50505050508152602001600282015481526020016003820154815250509050919050565b6000600954905090565b6111ea83838360405180602001604052806000815250611eaf565b505050565b60006111f96123c4565b60006007600081548092919061120e90613cf5565b91905055905060405180610120016040528082815260200142815260200189815260200188815260200187815260200186815260200185815260200184815260200160011515815250600a6000838152602001908152602001600020600082015181600001556020820151816001015560408201518160020190816112939190613ee9565b5060608201518160030190816112a99190613ee9565b506080820151816004015560a0820151816005015560c0820151816006015560e08201518160070190816112dd9190613ee9565b506101008201518160080160006101000a81548160ff021916908315150217905550905050807fbd88b7d78fde75d88fa6e1dc0f10ecf10516ae8cdd40fa7c03e10fb1a3bf56198989604051611334929190613fbb565b60405180910390a2809150509695505050505050565b600b60205280600052604060002060009150905080600001805461136d90613bbe565b80601f016020809104026020016040519081016040528092919081815260200182805461139990613bbe565b80156113e65780601f106113bb576101008083540402835291602001916113e6565b820191906000526020600020905b8154815290600101906020018083116113c957829003601f168201915b5050505050908060010180546113fb90613bbe565b80601f016020809104026020016040519081016040528092919081815260200182805461142790613bbe565b80156114745780601f1061144957610100808354040283529160200191611474565b820191906000526020600020905b81548152906001019060200180831161145757829003601f168201915b5050505050908060020154908060030154905084565b600c6020528060005260406000206000915090508060000154908060010154908060020180546114b990613bbe565b80601f01602080910402602001604051908101604052809291908181526020018280546114e590613bbe565b80156115325780601f1061150757610100808354040283529160200191611532565b820191906000526020600020905b81548152906001019060200180831161151557829003601f168201915b50505050509080600301805461154790613bbe565b80601f016020809104026020016040519081016040528092919081815260200182805461157390613bbe565b80156115c05780601f10611595576101008083540402835291602001916115c0565b820191906000526020600020905b8154815290600101906020018083116115a357829003601f168201915b5050505050908060040180546115d590613bbe565b80601f016020809104026020016040519081016040528092919081815260200182805461160190613bbe565b801561164e5780601f106116235761010080835404028352916020019161164e565b820191906000526020600020905b81548152906001019060200180831161163157829003601f168201915b50505050509080600501805461166390613bbe565b80601f016020809104026020016040519081016040528092919081815260200182805461168f90613bbe565b80156116dc5780601f106116b1576101008083540402835291602001916116dc565b820191906000526020600020905b8154815290600101906020018083116116bf57829003601f168201915b5050505050908060060180546116f190613bbe565b80601f016020809104026020016040519081016040528092919081815260200182805461171d90613bbe565b801561176a5780601f1061173f5761010080835404028352916020019161176a565b820191906000526020600020905b81548152906001019060200180831161174d57829003601f168201915b5050505050908060070154908060080160009054906101000a900473ffffffffffffffffffffffffffffffffffffffff16905089565b60006117ab826120cb565b9050919050565b60008073ffffffffffffffffffffffffffffffffffffffff168273ffffffffffffffffffffffffffffffffffffffff16036118255760006040517f89c62b6400000000000000000000000000000000000000000000000000000000815260040161181c9190613258565b60405180910390fd5b600360008373ffffffffffffffffffffffffffffffffffffffff1673ffffffffffffffffffffffffffffffffffffffff168152602001908152602001600020549050919050565b60006118766123c4565b60006009600081548092919061188b90613cf5565b9190505590506040518061012001604052808281526020014281526020016040518060400160405280600381526020017f455448000000000000000000000000000000000000000000000000000000000081525081526020018881526020018781526020018681526020018581526020018481526020013373ffffffffffffffffffffffffffffffffffffffff16815250600c6000838152602001908152602001600020600082015181600001556020820151816001015560408201518160020190816119589190613ee9565b50606082015181600301908161196e9190613ee9565b5060808201518160040190816119849190613ee9565b5060a082015181600501908161199a9190613ee9565b5060c08201518160060190816119b09190613ee9565b5060e082015181600701556101008201518160080160006101000a81548173ffffffffffffffffffffffffffffffffffffffff021916908373ffffffffffffffffffffffffffffffffffffffff160217905550905050807ff836a40ab16a62a4dc8d2a9e95209125661924473c96fa7d5ba3204d718a23ad8585604051611a3892919061403e565b60405180910390a28091505095945050505050565b611a556123c4565b611a5f600061244b565b565b6000600660009054906101000a900473ffffffffffffffffffffffffffffffffffffffff16905090565b606060018054611a9a90613bbe565b80601f0160208091040260200160405190810160405280929190818152602001828054611ac690613bbe565b8015611b135780601f10611ae857610100808354040283529160200191611b13565b820191906000526020600020905b815481529060010190602001808311611af657829003601f168201915b5050505050905090565b611b25612df0565b600c6000838152602001908152602001600020604051806101200160405290816000820154815260200160018201548152602001600282018054611b6890613bbe565b80601f0160208091040260200160405190810160405280929190818152602001828054611b9490613bbe565b8015611be15780601f10611bb657610100808354040283529160200191611be1565b820191906000526020600020905b815481529060010190602001808311611bc457829003601f168201915b50505050508152602001600382018054611bfa90613bbe565b80601f0160208091040260200160405190810160405280929190818152602001828054611c2690613bbe565b8015611c735780601f10611c4857610100808354040283529160200191611c73565b820191906000526020600020905b815481529060010190602001808311611c5657829003601f168201915b50505050508152602001600482018054611c8c90613bbe565b80601f0160208091040260200160405190810160405280929190818152602001828054611cb890613bbe565b8015611d055780601f10611cda57610100808354040283529160200191611d05565b820191906000526020600020905b815481529060010190602001808311611ce857829003601f168201915b50505050508152602001600582018054611d1e90613bbe565b80601f0160208091040260200160405190810160405280929190818152602001828054611d4a90613bbe565b8015611d975780601f10611d6c57610100808354040283529160200191611d97565b820191906000526020600020905b815481529060010190602001808311611d7a57829003601f168201915b50505050508152602001600682018054611db090613bbe565b80601f0160208091040260200160405190810160405280929190818152602001828054611ddc90613bbe565b8015611e295780601f10611dfe57610100808354040283529160200191611e29565b820191906000526020600020905b815481529060010190602001808311611e0c57829003601f168201915b50505050508152602001600782015481526020016008820160009054906101000a900473ffffffffffffffffffffffffffffffffffffffff1673ffffffffffffffffffffffffffffffffffffffff1673ffffffffffffffffffffffffffffffffffffffff16815250509050919050565b611eab611ea4612190565b8383612511565b5050565b611eba848484610d2d565b611ece611ec5612190565b85858585612680565b50505050565b6060611edf826120cb565b506000611eea612831565b90506000815111611f0a5760405180602001604052806000815250611f35565b80611f1484612848565b604051602001611f259291906140bd565b6040516020818303038152906040525b915050919050565b6000600560008473ffffffffffffffffffffffffffffffffffffffff1673ffffffffffffffffffffffffffffffffffffffff16815260200190815260200160002060008373ffffffffffffffffffffffffffffffffffffffff1673ffffffffffffffffffffffffffffffffffffffff16815260200190815260200160002060009054906101000a900460ff16905092915050565b6000600754905090565b611fe36123c4565b600073ffffffffffffffffffffffffffffffffffffffff168173ffffffffffffffffffffffffffffffffffffffff16036120555760006040517f1e4fbdf700000000000000000000000000000000000000000000000000000000815260040161204c9190613258565b60405180910390fd5b61205e8161244b565b50565b60007f01ffc9a7000000000000000000000000000000000000000000000000000000007bffffffffffffffffffffffffffffffffffffffffffffffffffffffff1916827bffffffffffffffffffffffffffffffffffffffffffffffffffffffff1916149050919050565b6000806120d783612916565b9050600073ffffffffffffffffffffffffffffffffffffffff168173ffffffffffffffffffffffffffffffffffffffff160361214a57826040517f7e2732890000000000000000000000000000000000000000000000000000000081526004016121419190613573565b60405180910390fd5b80915050919050565b60006004600083815260200190815260200160002060009054906101000a900473ffffffffffffffffffffffffffffffffffffffff169050919050565b600033905090565b6121a58383836001612953565b505050565b6000806121b684612916565b9050600073ffffffffffffffffffffffffffffffffffffffff168373ffffffffffffffffffffffffffffffffffffffff16146121f8576121f7818486612b18565b5b600073ffffffffffffffffffffffffffffffffffffffff168173ffffffffffffffffffffffffffffffffffffffff16146122895761223a600085600080612953565b6001600360008373ffffffffffffffffffffffffffffffffffffffff1673ffffffffffffffffffffffffffffffffffffffff168152602001908152602001600020600082825403925050819055505b600073ffffffffffffffffffffffffffffffffffffffff168573ffffffffffffffffffffffffffffffffffffffff161461230c576001600360008773ffffffffffffffffffffffffffffffffffffffff1673ffffffffffffffffffffffffffffffffffffffff168152602001908152602001600020600082825401925050819055505b846002600086815260200190815260200160002060006101000a81548173ffffffffffffffffffffffffffffffffffffffff021916908373ffffffffffffffffffffffffffffffffffffffff160217905550838573ffffffffffffffffffffffffffffffffffffffff168273ffffffffffffffffffffffffffffffffffffffff167fddf252ad1be2c89b69c2b068fc378daa952ba7f163c4a11628f55a4df523b3ef60405160405180910390a4809150509392505050565b6123cc612190565b73ffffffffffffffffffffffffffffffffffffffff166123ea611a61565b73ffffffffffffffffffffffffffffffffffffffff16146124495761240d612190565b6040517f118cdaa70000000000000000000000000000000000000000000000000000000081526004016124409190613258565b60405180910390fd5b565b6000600660009054906101000a900473ffffffffffffffffffffffffffffffffffffffff16905081600660006101000a81548173ffffffffffffffffffffffffffffffffffffffff021916908373ffffffffffffffffffffffffffffffffffffffff1602179055508173ffffffffffffffffffffffffffffffffffffffff168173ffffffffffffffffffffffffffffffffffffffff167f8be0079c531659141344cd1fd0a4f28419497f9722a3daafe3b4186f6b6457e060405160405180910390a35050565b600073ffffffffffffffffffffffffffffffffffffffff168273ffffffffffffffffffffffffffffffffffffffff160361258257816040517f5b08ba180000000000000000000000000000000000000000000000000000000081526004016125799190613258565b60405180910390fd5b80600560008573ffffffffffffffffffffffffffffffffffffffff1673ffffffffffffffffffffffffffffffffffffffff16815260200190815260200160002060008473ffffffffffffffffffffffffffffffffffffffff1673ffffffffffffffffffffffffffffffffffffffff16815260200190815260200160002060006101000a81548160ff0219169083151502179055508173ffffffffffffffffffffffffffffffffffffffff168373ffffffffffffffffffffffffffffffffffffffff167f17307eab39ab6107e8899845ad3d59bd9653f200f220920489ca2b5937696c31836040516126739190612f7c565b60405180910390a3505050565b60008373ffffffffffffffffffffffffffffffffffffffff163b111561282a578273ffffffffffffffffffffffffffffffffffffffff1663150b7a02868685856040518563ffffffff1660e01b81526004016126df9493929190614136565b6020604051808303816000875af192505050801561271b57506040513d601f19601f820116820180604052508101906127189190614197565b60015b61279f573d806000811461274b576040519150601f19603f3d011682016040523d82523d6000602084013e612750565b606091505b50600081510361279757836040517f64a0ae9200000000000000000000000000000000000000000000000000000000815260040161278e9190613258565b60405180910390fd5b805160208201fd5b63150b7a0260e01b7bffffffffffffffffffffffffffffffffffffffffffffffffffffffff1916817bffffffffffffffffffffffffffffffffffffffffffffffffffffffff19161461282857836040517f64a0ae9200000000000000000000000000000000000000000000000000000000815260040161281f9190613258565b60405180910390fd5b505b5050505050565b606060405180602001604052806000815250905090565b60606000600161285784612bdc565b01905060008167ffffffffffffffff81111561287657612875613598565b5b6040519080825280601f01601f1916602001820160405280156128a85781602001600182028036833780820191505090505b509050600082602083010190505b60011561290b578080600190039150507f3031323334353637383961626364656600000000000000000000000000000000600a86061a8153600a85816128ff576128fe6141c4565b5b049450600085036128b6575b819350505050919050565b60006002600083815260200190815260200160002060009054906101000a900473ffffffffffffffffffffffffffffffffffffffff169050919050565b808061298c5750600073ffffffffffffffffffffffffffffffffffffffff168273ffffffffffffffffffffffffffffffffffffffff1614155b15612ac057600061299c846120cb565b9050600073ffffffffffffffffffffffffffffffffffffffff168373ffffffffffffffffffffffffffffffffffffffff1614158015612a0757508273ffffffffffffffffffffffffffffffffffffffff168173ffffffffffffffffffffffffffffffffffffffff1614155b8015612a1a5750612a188184611f3d565b155b15612a5c57826040517fa9fbf51f000000000000000000000000000000000000000000000000000000008152600401612a539190613258565b60405180910390fd5b8115612abe57838573ffffffffffffffffffffffffffffffffffffffff168273ffffffffffffffffffffffffffffffffffffffff167f8c5be1e5ebec7d5bd14f71427d1e84f3dd0314c0f7b2291e5b200ac8c7c3b92560405160405180910390a45b505b836004600085815260200190815260200160002060006101000a81548173ffffffffffffffffffffffffffffffffffffffff021916908373ffffffffffffffffffffffffffffffffffffffff16021790555050505050565b612b23838383612d2f565b612bd757600073ffffffffffffffffffffffffffffffffffffffff168373ffffffffffffffffffffffffffffffffffffffff1603612b9857806040517f7e273289000000000000000000000000000000000000000000000000000000008152600401612b8f9190613573565b60405180910390fd5b81816040517f177e802f000000000000000000000000000000000000000000000000000000008152600401612bce9291906141f3565b60405180910390fd5b505050565b600080600090507a184f03e93ff9f4daa797ed6e38ed64bf6a1f0100000000000000008310612c3a577a184f03e93ff9f4daa797ed6e38ed64bf6a1f0100000000000000008381612c3057612c2f6141c4565b5b0492506040810190505b6d04ee2d6d415b85acef81000000008310612c77576d04ee2d6d415b85acef81000000008381612c6d57612c6c6141c4565b5b0492506020810190505b662386f26fc100008310612ca657662386f26fc100008381612c9c57612c9b6141c4565b5b0492506010810190505b6305f5e1008310612ccf576305f5e1008381612cc557612cc46141c4565b5b0492506008810190505b6127108310612cf4576127108381612cea57612ce96141c4565b5b0492506004810190505b60648310612d175760648381612d0d57612d0c6141c4565b5b0492506002810190505b600a8310612d26576001810190505b80915050919050565b60008073ffffffffffffffffffffffffffffffffffffffff168373ffffffffffffffffffffffffffffffffffffffff1614158015612de757508273ffffffffffffffffffffffffffffffffffffffff168473ffffffffffffffffffffffffffffffffffffffff161480612da85750612da78484611f3d565b5b80612de657508273ffffffffffffffffffffffffffffffffffffffff16612dce83612153565b73ffffffffffffffffffffffffffffffffffffffff16145b5b90509392505050565b6040518061012001604052806000815260200160008152602001606081526020016060815260200160608152602001606081526020016060815260200160008152602001600073ffffffffffffffffffffffffffffffffffffffff1681525090565b60405180610120016040528060008152602001600081526020016060815260200160608152602001600081526020016000815260200160008152602001606081526020016000151581525090565b6040518060800160405280606081526020016060815260200160008152602001600081525090565b6000604051905090565b600080fd5b600080fd5b60007fffffffff0000000000000000000000000000000000000000000000000000000082169050919050565b612f1181612edc565b8114612f1c57600080fd5b50565b600081359050612f2e81612f08565b92915050565b600060208284031215612f4a57612f49612ed2565b5b6000612f5884828501612f1f565b91505092915050565b60008115159050919050565b612f7681612f61565b82525050565b6000602082019050612f916000830184612f6d565b92915050565b600081519050919050565b600082825260208201905092915050565b60005b83811015612fd1578082015181840152602081019050612fb6565b60008484015250505050565b6000601f19601f8301169050919050565b6000612ff982612f97565b6130038185612fa2565b9350613013818560208601612fb3565b61301c81612fdd565b840191505092915050565b600060208201905081810360008301526130418184612fee565b905092915050565b6000819050919050565b61305c81613049565b82525050565b600082825260208201905092915050565b600061307e82612f97565b6130888185613062565b9350613098818560208601612fb3565b6130a181612fdd565b840191505092915050565b600073ffffffffffffffffffffffffffffffffffffffff82169050919050565b60006130d7826130ac565b9050919050565b6130e7816130cc565b82525050565b6000610120830160008301516131066000860182613053565b5060208301516131196020860182613053565b50604083015184820360408601526131318282613073565b9150506060830151848203606086015261314b8282613073565b915050608083015184820360808601526131658282613073565b91505060a083015184820360a086015261317f8282613073565b91505060c083015184820360c08601526131998282613073565b91505060e08301516131ae60e0860182613053565b506101008301516131c36101008601826130de565b508091505092915050565b600060208201905081810360008301526131e881846130ed565b905092915050565b6131f981613049565b811461320457600080fd5b50565b600081359050613216816131f0565b92915050565b60006020828403121561323257613231612ed2565b5b600061324084828501613207565b91505092915050565b613252816130cc565b82525050565b600060208201905061326d6000830184613249565b92915050565b61327c816130cc565b811461328757600080fd5b50565b60008135905061329981613273565b92915050565b600080604083850312156132b6576132b5612ed2565b5b60006132c48582860161328a565b92505060206132d585828601613207565b9150509250929050565b6132e881613049565b82525050565b600061012082019050613304600083018c6132df565b613311602083018b6132df565b8181036040830152613323818a612fee565b905081810360608301526133378189612fee565b905061334660808301886132df565b61335360a08301876132df565b61336060c08301866132df565b81810360e08301526133728185612fee565b9050613382610100830184612f6d565b9a9950505050505050505050565b6000806000606084860312156133a9576133a8612ed2565b5b60006133b78682870161328a565b93505060206133c88682870161328a565b92505060406133d986828701613207565b9150509250925092565b6133ec81612f61565b82525050565b60006101208301600083015161340b6000860182613053565b50602083015161341e6020860182613053565b50604083015184820360408601526134368282613073565b915050606083015184820360608601526134508282613073565b91505060808301516134656080860182613053565b5060a083015161347860a0860182613053565b5060c083015161348b60c0860182613053565b5060e083015184820360e08601526134a38282613073565b9150506101008301516134ba6101008601826133e3565b508091505092915050565b600060208201905081810360008301526134df81846133f2565b905092915050565b600060808301600083015184820360008601526135048282613073565b9150506020830151848203602086015261351e8282613073565b91505060408301516135336040860182613053565b5060608301516135466060860182613053565b508091505092915050565b6000602082019050818103600083015261356b81846134e7565b905092915050565b600060208201905061358860008301846132df565b92915050565b600080fd5b600080fd5b7f4e487b7100000000000000000000000000000000000000000000000000000000600052604160045260246000fd5b6135d082612fdd565b810181811067ffffffffffffffff821117156135ef576135ee613598565b5b80604052505050565b6000613602612ec8565b905061360e82826135c7565b919050565b600067ffffffffffffffff82111561362e5761362d613598565b5b61363782612fdd565b9050602081019050919050565b82818337600083830152505050565b600061366661366184613613565b6135f8565b90508281526020810184848401111561368257613681613593565b5b61368d848285613644565b509392505050565b600082601f8301126136aa576136a961358e565b5b81356136ba848260208601613653565b91505092915050565b60008060008060008060c087890312156136e0576136df612ed2565b5b600087013567ffffffffffffffff8111156136fe576136fd612ed7565b5b61370a89828a01613695565b965050602087013567ffffffffffffffff81111561372b5761372a612ed7565b5b61373789828a01613695565b955050604061374889828a01613207565b945050606061375989828a01613207565b935050608061376a89828a01613207565b92505060a087013567ffffffffffffffff81111561378b5761378a612ed7565b5b61379789828a01613695565b9150509295509295509295565b600060808201905081810360008301526137be8187612fee565b905081810360208301526137d28186612fee565b90506137e160408301856132df565b6137ee60608301846132df565b95945050505050565b60006101208201905061380d600083018c6132df565b61381a602083018b6132df565b818103604083015261382c818a612fee565b905081810360608301526138408189612fee565b905081810360808301526138548188612fee565b905081810360a08301526138688187612fee565b905081810360c083015261387c8186612fee565b905061388b60e08301856132df565b613899610100830184613249565b9a9950505050505050505050565b6000602082840312156138bd576138bc612ed2565b5b60006138cb8482850161328a565b91505092915050565b600080600080600060a086880312156138f0576138ef612ed2565b5b600086013567ffffffffffffffff81111561390e5761390d612ed7565b5b61391a88828901613695565b955050602086013567ffffffffffffffff81111561393b5761393a612ed7565b5b61394788828901613695565b945050604086013567ffffffffffffffff81111561396857613967612ed7565b5b61397488828901613695565b935050606086013567ffffffffffffffff81111561399557613994612ed7565b5b6139a188828901613695565b92505060806139b288828901613207565b9150509295509295909350565b6139c881612f61565b81146139d357600080fd5b50565b6000813590506139e5816139bf565b92915050565b60008060408385031215613a0257613a01612ed2565b5b6000613a108582860161328a565b9250506020613a21858286016139d6565b9150509250929050565b600067ffffffffffffffff821115613a4657613a45613598565b5b613a4f82612fdd565b9050602081019050919050565b6000613a6f613a6a84613a2b565b6135f8565b905082815260208101848484011115613a8b57613a8a613593565b5b613a96848285613644565b509392505050565b600082601f830112613ab357613ab261358e565b5b8135613ac3848260208601613a5c565b91505092915050565b60008060008060808587031215613ae657613ae5612ed2565b5b6000613af48782880161328a565b9450506020613b058782880161328a565b9350506040613b1687828801613207565b925050606085013567ffffffffffffffff811115613b3757613b36612ed7565b5b613b4387828801613a9e565b91505092959194509250565b60008060408385031215613b6657613b65612ed2565b5b6000613b748582860161328a565b9250506020613b858582860161328a565b9150509250929050565b7f4e487b7100000000000000000000000000000000000000000000000000000000600052602260045260246000fd5b60006002820490506001821680613bd657607f821691505b602082108103613be957613be8613b8f565b5b50919050565b7f4e6f206465626174657320796574000000000000000000000000000000000000600082015250565b6000613c25600e83612fa2565b9150613c3082613bef565b602082019050919050565b60006020820190508181036000830152613c5481613c18565b9050919050565b7f4e487b7100000000000000000000000000000000000000000000000000000000600052601160045260246000fd5b6000613c9582613049565b9150613ca083613049565b9250828203905081811115613cb857613cb7613c5b565b5b92915050565b6000606082019050613cd36000830186613249565b613ce060208301856132df565b613ced6040830184613249565b949350505050565b6000613d0082613049565b91507fffffffffffffffffffffffffffffffffffffffffffffffffffffffffffffffff8203613d3257613d31613c5b565b5b600182019050919050565b60008190508160005260206000209050919050565b60006020601f8301049050919050565b600082821b905092915050565b600060088302613d9f7fffffffffffffffffffffffffffffffffffffffffffffffffffffffffffffffff82613d62565b613da98683613d62565b95508019841693508086168417925050509392505050565b6000819050919050565b6000613de6613de1613ddc84613049565b613dc1565b613049565b9050919050565b6000819050919050565b613e0083613dcb565b613e14613e0c82613ded565b848454613d6f565b825550505050565b600090565b613e29613e1c565b613e34818484613df7565b505050565b5b81811015613e5857613e4d600082613e21565b600181019050613e3a565b5050565b601f821115613e9d57613e6e81613d3d565b613e7784613d52565b81016020851015613e86578190505b613e9a613e9285613d52565b830182613e39565b50505b505050565b600082821c905092915050565b6000613ec060001984600802613ea2565b1980831691505092915050565b6000613ed98383613eaf565b9150826002028217905092915050565b613ef282612f97565b67ffffffffffffffff811115613f0b57613f0a613598565b5b613f158254613bbe565b613f20828285613e5c565b600060209050601f831160018114613f535760008415613f41578287015190505b613f4b8582613ecd565b865550613fb3565b601f198416613f6186613d3d565b60005b82811015613f8957848901518255600182019150602085019450602081019050613f64565b86831015613fa65784890151613fa2601f891682613eaf565b8355505b6001600288020188555050505b505050505050565b60006040820190508181036000830152613fd58185612fee565b90508181036020830152613fe98184612fee565b90509392505050565b7f4554480000000000000000000000000000000000000000000000000000000000600082015250565b6000614028600383612fa2565b915061403382613ff2565b602082019050919050565b600060608201905081810360008301526140578161401b565b9050818103602083015261406b8185612fee565b905061407a60408301846132df565b9392505050565b600081905092915050565b600061409782612f97565b6140a18185614081565b93506140b1818560208601612fb3565b80840191505092915050565b60006140c9828561408c565b91506140d5828461408c565b91508190509392505050565b600081519050919050565b600082825260208201905092915050565b6000614108826140e1565b61411281856140ec565b9350614122818560208601612fb3565b61412b81612fdd565b840191505092915050565b600060808201905061414b6000830187613249565b6141586020830186613249565b61416560408301856132df565b818103606083015261417781846140fd565b905095945050505050565b60008151905061419181612f08565b92915050565b6000602082840312156141ad576141ac612ed2565b5b60006141bb84828501614182565b91505092915050565b7f4e487b7100000000000000000000000000000000000000000000000000000000600052601260045260246000fd5b60006040820190506142086000830185613249565b61421560208301846132df565b939250505056fea26469706673582212209b358fd08e17a0777bdc3c1b750fc854a85aa71a3dbb0c52b6c889c81b09cf2f64736f6c63430008140033",
  "linkReferences": {},
  "deployedLinkReferences": {}
}