{
  "_format": "hh-sol-artifact-1",
  "contractName": "PantheonCouncil",
  "sourceName": "contracts/PantheonCouncil.sol",
  "abi": [
    {
      "anonymous": false,
      "inputs": [
        {
          "indexed": true,
          "internalType": "uint256",
          "name": "id",
          "type": "uint256"
        },
        {
          "indexed": false,
          "internalType": "uint256",
          "name": "timestamp",
          "type": "uint256"
        },
        {
          "indexed": false,
          "internalType": "string",
          "name": "symbol",
          "type": "string"
        },
        {
          "indexed": false,
          "internalType": "string",
          "name": "consensus",
          "type": "string"
        },
        {
          "indexed": false,
          "internalType": "uint256",
          "name": "finalConfidence",
          "type": "uint256"
        },
        {
          "indexed": false,
          "internalType": "address",
          "name": "recorder",
          "type": "address"
        }
      ],
      "name": "DebateRecorded",
      "type": "event"
    },
    {
      "inputs": [
        {
          "internalType": "uint256",
          "name": "",
          "type": "uint256"
        }
      ],
      "name": "debates",
      "outputs": [
        {
          "internalType": "uint256",
          "name": "id",
          "type": "uint256"
        },
        {
          "internalType": "uint256",
          "name": "timestamp",
          "type": "uint256"
        },
        {
          "internalType": "string",
          "name": "symbol",
          "type": "string"
        },
        {
          "internalType": "string",
          "name": "analystView",
          "type": "string"
        },
        {
          "internalType": "string",
          "name": "skepticView",
          "type": "string"
        },
        {
          "internalType": "string",
          "name": "degenView",
          "type": "string"
        },
        {
          "internalType": "string",
          "name": "consensus",
          "type": "string"
        },
        {
          "internalType": "uint256",
          "name": "finalConfidence",
          "type": "uint256"
        },
        {
          "internalType": "address",
          "name": "recorder",
          "type": "address"
        }
      ],
      "stateMutability": "view",
      "type": "function"
    },
    {
      "inputs": [],
      "name": "getAllDebates",
      "outputs": [
        {
          "components": [
            {
              "internalType": "uint256",
              "name": "id",
              "type": "uint256"
            },
            {
              "internalType": "uint256",
              "name": "timestamp",
              "type": "uint256"
            },
            {
              "internalType": "string",
              "name": "symbol",
              "type": "string"
            },
            {
              "internalType": "string",
              "name": "analystView",
              "type": "string"
            },
            {
              "internalType": "string",
              "name": "skepticView",
              "type": "string"
            },
            {
              "internalType": "string",
              "name": "degenView",
              "type": "string"
            },
            {
              "internalType": "string",
              "name": "consensus",
              "type": "string"
            },
            {
              "internalType": "uint256",
              "name": "finalConfidence",
              "type": "uint256"
            },
            {
              "internalType": "address",
              "name": "recorder",
              "type": "address"
            }
          ],
          "internalType": "struct PantheonCouncil.Debate[]",
          "name": "",
          "type": "tuple[]"
        }
      ],
      "stateMutability": "view",
      "type": "function"
    },
    {
      "inputs": [
        {
          "internalType": "uint256",
          "name": "debateId",
          "type": "uint256"
        }
      ],
      "name": "getDebate",
      "outputs": [
        {
          "components": [
            {
              "internalType": "uint256",
              "name": "id",
              "type": "uint256"
            },
            {
              "internalType": "uint256",
              "name": "timestamp",
              "type": "uint256"
            },
            {
              "internalType": "string",
              "name": "symbol",
              "type": "string"
            },
            {
              "internalType": "string",
              "name": "analystView",
              "type": "string"
            },
            {
              "internalType": "string",
              "name": "skepticView",
              "type": "string"
            },
            {
              "internalType": "string",
              "name": "degenView",
              "type": "string"
            },
            {
              "internalType": "string",
              "name": "consensus",
              "type": "string"
            },
            {
              "internalType": "uint256",
              "name": "finalConfidence",
              "type": "uint256"
            },
            {
              "internalType": "address",
              "name": "recorder",
              "type": "address"
            }
          ],
          "internalType": "struct PantheonCouncil.Debate",
          "name": "",
          "type": "tuple"
        }
      ],
      "stateMutability": "view",
      "type": "function"
    },
    {
      "inputs": [],
      "name": "getLatestDebate",
      "outputs": [
        {
          "components": [
            {
              "internalType": "uint256",
              "name": "id",
              "type": "uint256"
            },
            {
              "internalType": "uint256",
              "name": "timestamp",
              "type": "uint256"
            },
            {
              "internalType": "string",
              "name": "symbol",
              "type": "string"
            },
            {
              "internalType": "string",
              "name": "analystView",
              "type": "string"
            },
            {
              "internalType": "string",
              "name": "skepticView",
              "type": "string"
            },
            {
              "internalType": "string",
              "name": "degenView",
              "type": "string"
            },
            {
              "internalType": "string",
              "name": "consensus",
              "type": "string"
            },
            {
              "internalType": "uint256",
              "name": "finalConfidence",
              "type": "uint256"
            },
            {
              "internalType": "address",
              "name": "recorder",
              "type": "address"
            }
          ],
          "internalType": "struct PantheonCouncil.Debate",
          "name": "",
          "type": "tuple"
        }
      ],
      "stateMutability": "view",
      "type": "function"
    },
    {
      "inputs": [
        {
          "internalType": "uint256",
          "name": "count",
          "type": "uint256"
        }
      ],
      "name": "getRecentDebates",
      "outputs": [
        {
          "components": [
            {
              "internalType": "uint256",
              "name": "id",
              "type": "uint256"
            },
            {
              "internalType": "uint256",
              "name": "timestamp",
              "type": "uint256"
            },
            {
              "internalType": "string",
              "name": "symbol",
              "type": "string"
            },
            {
              "internalType": "string",
              "name": "analystView",
              "type": "string"
            },
            {
              "internalType": "string",
              "name": "skepticView",
              "type": "string"
            },
            {
              "internalType": "string",
              "name": "degenView",
              "type": "string"
            },
            {
              "internalType": "string",
              "name": "consensus",
              "type": "string"
            },
            {
              "internalType": "uint256",
              "name": "finalConfidence",
              "type": "uint256"
            },
            {
              "internalType": "address",
              "name": "recorder",
              "type": "address"
            }
          ],
          "internalType": "struct PantheonCouncil.Debate[]",
          "name": "",
          "type": "tuple[]"
        }
      ],
      "stateMutability": "view",
      "type": "function"
    },
    {
      "inputs": [],
      "name": "getTotalDebates",
      "outputs": [
        {
          "internalType": "uint256",
          "name": "",
          "type": "uint256"
        }
      ],
      "stateMutability": "view",
      "type": "function"
    },
    {
      "inputs": [
        {
          "internalType": "string",
          "name": "symbol",
          "type": "string"
        },
        {
          "internalType": "string",
          "name": "analystView",
          "type": "string"
        },
        {
          "internalType": "string",
          "name": "skepticView",
          "type": "string"
        },
        {
          "internalType": "string",
          "name": "degenView",
          "type": "string"
        },
        {
          "internalType": "string",
          "name": "consensus",
          "type": "string"
        },
        {
          "internalType": "uint256",
          "name": "finalConfidence",
          "type": "uint256"
        }
      ],
      "name": "recordDebate",
      "outputs": [],
      "stateMutability": "nonpayable",
      "type": "function"
    }
  ],
  "bytecode": "0x608060405234801561001057600080fd5b50612855806100206000396000f3fe608060405234801561001057600080fd5b506004361061007d5760003560e01c80636c9e83ac1161005b5780636c9e83ac146100f6578063733305301461011257806398d336af14610142578063f704a913146101725761007d565b80630773f250146100825780633461f164146100a057806359758fcf146100be575b600080fd5b61008a610190565b6040516100979190611a31565b60405180910390f35b6100a8610571565b6040516100b59190611a62565b60405180910390f35b6100d860048036038101906100d39190611abd565b61057d565b6040516100ed99989796959493929190611b43565b60405180910390f35b610110600480360381019061010b9190611d28565b6108a3565b005b61012c60048036038101906101279190611abd565b610bf9565b6040516101399190611fe4565b60405180910390f35b61015c60048036038101906101579190611abd565b611084565b6040516101699190611a31565b60405180910390f35b61017a611456565b6040516101879190611fe4565b60405180910390f35b610198611804565b60008080549050116101df576040517f08c379a00000000000000000000000000000000000000000000000000000000081526004016101d690612052565b60405180910390fd5b600060016000805490506101f391906120a1565b81548110610204576102036120d5565b5b906000526020600020906009020160405180610120016040529081600082015481526020016001820154815260200160028201805461024290612133565b80601f016020809104026020016040519081016040528092919081815260200182805461026e90612133565b80156102bb5780601f10610290576101008083540402835291602001916102bb565b820191906000526020600020905b81548152906001019060200180831161029e57829003601f168201915b505050505081526020016003820180546102d490612133565b80601f016020809104026020016040519081016040528092919081815260200182805461030090612133565b801561034d5780601f106103225761010080835404028352916020019161034d565b820191906000526020600020905b81548152906001019060200180831161033057829003601f168201915b5050505050815260200160048201805461036690612133565b80601f016020809104026020016040519081016040528092919081815260200182805461039290612133565b80156103df5780601f106103b4576101008083540402835291602001916103df565b820191906000526020600020905b8154815290600101906020018083116103c257829003601f168201915b505050505081526020016005820180546103f890612133565b80601f016020809104026020016040519081016040528092919081815260200182805461042490612133565b80156104715780601f1061044657610100808354040283529160200191610471565b820191906000526020600020905b81548152906001019060200180831161045457829003601f168201915b5050505050815260200160068201805461048a90612133565b80601f01602080910402602001604051908101604052809291908181526020018280546104b690612133565b80156105035780601f106104d857610100808354040283529160200191610503565b820191906000526020600020905b8154815290600101906020018083116104e657829003601f168201915b50505050508152602001600782015481526020016008820160009054906101000a900473ffffffffffffffffffffffffffffffffffffffff1673ffffffffffffffffffffffffffffffffffffffff1673ffffffffffffffffffffffffffffffffffffffff1681525050905090565b60008080549050905090565b6000818154811061058d57600080fd5b90600052602060002090600902016000915090508060000154908060010154908060020180546105bc90612133565b80601f01602080910402602001604051908101604052809291908181526020018280546105e890612133565b80156106355780601f1061060a57610100808354040283529160200191610635565b820191906000526020600020905b81548152906001019060200180831161061857829003601f168201915b50505050509080600301805461064a90612133565b80601f016020809104026020016040519081016040528092919081815260200182805461067690612133565b80156106c35780601f10610698576101008083540402835291602001916106c3565b820191906000526020600020905b8154815290600101906020018083116106a657829003601f168201915b5050505050908060040180546106d890612133565b80601f016020809104026020016040519081016040528092919081815260200182805461070490612133565b80156107515780601f1061072657610100808354040283529160200191610751565b820191906000526020600020905b81548152906001019060200180831161073457829003601f168201915b50505050509080600501805461076690612133565b80601f016020809104026020016040519081016040528092919081815260200182805461079290612133565b80156107df5780601f106107b4576101008083540402835291602001916107df565b820191906000526020600020905b8154815290600101906020018083116107c257829003601f168201915b5050505050908060060180546107f490612133565b80601f016020809104026020016040519081016040528092919081815260200182805461082090612133565b801561086d5780601f106108425761010080835404028352916020019161086d565b820191906000526020600020905b81548152906001019060200180831161085057829003601f168201915b5050505050908060070154908060080160009054906101000a900473ffffffffffffffffffffffffffffffffffffffff16905089565b60008651116108e7576040517f08c379a00000000000000000000000000000000000000000000000000000000081526004016108de906121b0565b60405180910390fd5b600085511161092b576040517f08c379a00000000000000000000000000000000000000000000000000000000081526004016109229061221c565b60405180910390fd5b600084511161096f576040517f08c379a000000000000000000000000000000000000000000000000000000000815260040161096690612288565b60405180910390fd5b60008351116109b3576040517f08c379a00000000000000000000000000000000000000000000000000000000081526004016109aa906122f4565b60405180910390fd5b60008251116109f7576040517f08c379a00000000000000000000000000000000000000000000000000000000081526004016109ee90612360565b60405180910390fd5b600081118015610a08575060648111155b610a47576040517f08c379a0000000000000000000000000000000000000000000000000000000008152600401610a3e906123cc565b60405180910390fd5b600060405180610120016040528060008054905081526020014281526020018881526020018781526020018681526020018581526020018481526020018381526020013373ffffffffffffffffffffffffffffffffffffffff168152509050600081908060018154018082558091505060019003906000526020600020906009020160009091909190915060008201518160000155602082015181600101556040820151816002019081610afb9190612598565b506060820151816003019081610b119190612598565b506080820151816004019081610b279190612598565b5060a0820151816005019081610b3d9190612598565b5060c0820151816006019081610b539190612598565b5060e082015181600701556101008201518160080160006101000a81548173ffffffffffffffffffffffffffffffffffffffff021916908373ffffffffffffffffffffffffffffffffffffffff160217905550505080600001517ff93c39c16de32b01120a1d3aba03cd9bb68a701e7c8fb7b9041435fd24743129826020015189868633604051610be895949392919061266a565b60405180910390a250505050505050565b606060008211610c3e576040517f08c379a0000000000000000000000000000000000000000000000000000000008152600401610c3590612717565b60405180910390fd5b60008080549050905080831115610c53578092505b60008367ffffffffffffffff811115610c6f57610c6e611bfd565b5b604051908082528060200260200182016040528015610ca857816020015b610c95611804565b815260200190600190039081610c8d5790505b50905060005b84811015611079576000818685610cc591906120a1565b610ccf9190612737565b81548110610ce057610cdf6120d5565b5b9060005260206000209060090201604051806101200160405290816000820154815260200160018201548152602001600282018054610d1e90612133565b80601f0160208091040260200160405190810160405280929190818152602001828054610d4a90612133565b8015610d975780601f10610d6c57610100808354040283529160200191610d97565b820191906000526020600020905b815481529060010190602001808311610d7a57829003601f168201915b50505050508152602001600382018054610db090612133565b80601f0160208091040260200160405190810160405280929190818152602001828054610ddc90612133565b8015610e295780601f10610dfe57610100808354040283529160200191610e29565b820191906000526020600020905b815481529060010190602001808311610e0c57829003601f168201915b50505050508152602001600482018054610e4290612133565b80601f0160208091040260200160405190810160405280929190818152602001828054610e6e90612133565b8015610ebb5780601f10610e9057610100808354040283529160200191610ebb565b820191906000526020600020905b815481529060010190602001808311610e9e57829003601f168201915b50505050508152602001600582018054610ed490612133565b80601f0160208091040260200160405190810160405280929190818152602001828054610f0090612133565b8015610f4d5780601f10610f2257610100808354040283529160200191610f4d565b820191906000526020600020905b815481529060010190602001808311610f3057829003601f168201915b50505050508152602001600682018054610f6690612133565b80601f0160208091040260200160405190810160405280929190818152602001828054610f9290612133565b8015610fdf5780601f10610fb457610100808354040283529160200191610fdf565b820191906000526020600020905b815481529060010190602001808311610fc257829003601f168201915b50505050508152602001600782015481526020016008820160009054906101000a900473ffffffffffffffffffffffffffffffffffffffff1673ffffffffffffffffffffffffffffffffffffffff1673ffffffffffffffffffffffffffffffffffffffff168152505082828151811061105b5761105a6120d5565b5b602002602001018190525080806110719061276b565b915050610cae565b508092505050919050565b61108c611804565b60008054905082106110d3576040517f08c379a00000000000000000000000000000000000000000000000000000000081526004016110ca906127ff565b60405180910390fd5b600082815481106110e7576110e66120d5565b5b906000526020600020906009020160405180610120016040529081600082015481526020016001820154815260200160028201805461112590612133565b80601f016020809104026020016040519081016040528092919081815260200182805461115190612133565b801561119e5780601f106111735761010080835404028352916020019161119e565b820191906000526020600020905b81548152906001019060200180831161118157829003601f168201915b505050505081526020016003820180546111b790612133565b80601f01602080910402602001604051908101604052809291908181526020018280546111e390612133565b80156112305780601f1061120557610100808354040283529160200191611230565b820191906000526020600020905b81548152906001019060200180831161121357829003601f168201915b5050505050815260200160048201805461124990612133565b80601f016020809104026020016040519081016040528092919081815260200182805461127590612133565b80156112c25780601f10611297576101008083540402835291602001916112c2565b820191906000526020600020905b8154815290600101906020018083116112a557829003601f168201915b505050505081526020016005820180546112db90612133565b80601f016020809104026020016040519081016040528092919081815260200182805461130790612133565b80156113545780601f1061132957610100808354040283529160200191611354565b820191906000526020600020905b81548152906001019060200180831161133757829003601f168201915b5050505050815260200160068201805461136d90612133565b80601f016020809104026020016040519081016040528092919081815260200182805461139990612133565b80156113e65780601f106113bb576101008083540402835291602001916113e6565b820191906000526020600020905b8154815290600101906020018083116113c957829003601f168201915b50505050508152602001600782015481526020016008820160009054906101000a900473ffffffffffffffffffffffffffffffffffffffff1673ffffffffffffffffffffffffffffffffffffffff1673ffffffffffffffffffffffffffffffffffffffff16815250509050919050565b60606000805480602002602001604051908101604052809291908181526020016000905b828210156117fb57838290600052602060002090600902016040518061012001604052908160008201548152602001600182015481526020016002820180546114c290612133565b80601f01602080910402602001604051908101604052809291908181526020018280546114ee90612133565b801561153b5780601f106115105761010080835404028352916020019161153b565b820191906000526020600020905b81548152906001019060200180831161151e57829003601f168201915b5050505050815260200160038201805461155490612133565b80601f016020809104026020016040519081016040528092919081815260200182805461158090612133565b80156115cd5780601f106115a2576101008083540402835291602001916115cd565b820191906000526020600020905b8154815290600101906020018083116115b057829003601f168201915b505050505081526020016004820180546115e690612133565b80601f016020809104026020016040519081016040528092919081815260200182805461161290612133565b801561165f5780601f106116345761010080835404028352916020019161165f565b820191906000526020600020905b81548152906001019060200180831161164257829003601f168201915b5050505050815260200160058201805461167890612133565b80601f01602080910402602001604051908101604052809291908181526020018280546116a490612133565b80156116f15780601f106116c6576101008083540402835291602001916116f1565b820191906000526020600020905b8154815290600101906020018083116116d457829003601f168201915b5050505050815260200160068201805461170a90612133565b80601f016020809104026020016040519081016040528092919081815260200182805461173690612133565b80156117835780601f1061175857610100808354040283529160200191611783565b820191906000526020600020905b81548152906001019060200180831161176657829003601f168201915b50505050508152602001600782015481526020016008820160009054906101000a900473ffffffffffffffffffffffffffffffffffffffff1673ffffffffffffffffffffffffffffffffffffffff1673ffffffffffffffffffffffffffffffffffffffff16815250508152602001906001019061147a565b50505050905090565b6040518061012001604052806000815260200160008152602001606081526020016060815260200160608152602001606081526020016060815260200160008152602001600073ffffffffffffffffffffffffffffffffffffffff1681525090565b6000819050919050565b61187981611866565b82525050565b600081519050919050565b600082825260208201905092915050565b60005b838110156118b957808201518184015260208101905061189e565b60008484015250505050565b6000601f19601f8301169050919050565b60006118e18261187f565b6118eb818561188a565b93506118fb81856020860161189b565b611904816118c5565b840191505092915050565b600073ffffffffffffffffffffffffffffffffffffffff82169050919050565b600061193a8261190f565b9050919050565b61194a8161192f565b82525050565b6000610120830160008301516119696000860182611870565b50602083015161197c6020860182611870565b506040830151848203604086015261199482826118d6565b915050606083015184820360608601526119ae82826118d6565b915050608083015184820360808601526119c882826118d6565b91505060a083015184820360a08601526119e282826118d6565b91505060c083015184820360c08601526119fc82826118d6565b91505060e0830151611a1160e0860182611870565b50610100830151611a26610100860182611941565b508091505092915050565b60006020820190508181036000830152611a4b8184611950565b905092915050565b611a5c81611866565b82525050565b6000602082019050611a776000830184611a53565b92915050565b6000604051905090565b600080fd5b600080fd5b611a9a81611866565b8114611aa557600080fd5b50565b600081359050611ab781611a91565b92915050565b600060208284031215611ad357611ad2611a87565b5b6000611ae184828501611aa8565b91505092915050565b600082825260208201905092915050565b6000611b068261187f565b611b108185611aea565b9350611b2081856020860161189b565b611b29816118c5565b840191505092915050565b611b3d8161192f565b82525050565b600061012082019050611b59600083018c611a53565b611b66602083018b611a53565b8181036040830152611b78818a611afb565b90508181036060830152611b8c8189611afb565b90508181036080830152611ba08188611afb565b905081810360a0830152611bb48187611afb565b905081810360c0830152611bc88186611afb565b9050611bd760e0830185611a53565b611be5610100830184611b34565b9a9950505050505050505050565b600080fd5b600080fd5b7f4e487b7100000000000000000000000000000000000000000000000000000000600052604160045260246000fd5b611c35826118c5565b810181811067ffffffffffffffff82111715611c5457611c53611bfd565b5b80604052505050565b6000611c67611a7d565b9050611c738282611c2c565b919050565b600067ffffffffffffffff821115611c9357611c92611bfd565b5b611c9c826118c5565b9050602081019050919050565b82818337600083830152505050565b6000611ccb611cc684611c78565b611c5d565b905082815260208101848484011115611ce757611ce6611bf8565b5b611cf2848285611ca9565b509392505050565b600082601f830112611d0f57611d0e611bf3565b5b8135611d1f848260208601611cb8565b91505092915050565b60008060008060008060c08789031215611d4557611d44611a87565b5b600087013567ffffffffffffffff811115611d6357611d62611a8c565b5b611d6f89828a01611cfa565b965050602087013567ffffffffffffffff811115611d9057611d8f611a8c565b5b611d9c89828a01611cfa565b955050604087013567ffffffffffffffff811115611dbd57611dbc611a8c565b5b611dc989828a01611cfa565b945050606087013567ffffffffffffffff811115611dea57611de9611a8c565b5b611df689828a01611cfa565b935050608087013567ffffffffffffffff811115611e1757611e16611a8c565b5b611e2389828a01611cfa565b92505060a0611e3489828a01611aa8565b9150509295509295509295565b600081519050919050565b600082825260208201905092915050565b6000819050602082019050919050565b600061012083016000830151611e866000860182611870565b506020830151611e996020860182611870565b5060408301518482036040860152611eb182826118d6565b91505060608301518482036060860152611ecb82826118d6565b91505060808301518482036080860152611ee582826118d6565b91505060a083015184820360a0860152611eff82826118d6565b91505060c083015184820360c0860152611f1982826118d6565b91505060e0830151611f2e60e0860182611870565b50610100830151611f43610100860182611941565b508091505092915050565b6000611f5a8383611e6d565b905092915050565b6000602082019050919050565b6000611f7a82611e41565b611f848185611e4c565b935083602082028501611f9685611e5d565b8060005b85811015611fd25784840389528151611fb38582611f4e565b9450611fbe83611f62565b925060208a01995050600181019050611f9a565b50829750879550505050505092915050565b60006020820190508181036000830152611ffe8184611f6f565b905092915050565b7f4e6f2064656261746573207265636f7264656420796574000000000000000000600082015250565b600061203c601783611aea565b915061204782612006565b602082019050919050565b6000602082019050818103600083015261206b8161202f565b9050919050565b7f4e487b7100000000000000000000000000000000000000000000000000000000600052601160045260246000fd5b60006120ac82611866565b91506120b783611866565b92508282039050818111156120cf576120ce612072565b5b92915050565b7f4e487b7100000000000000000000000000000000000000000000000000000000600052603260045260246000fd5b7f4e487b7100000000000000000000000000000000000000000000000000000000600052602260045260246000fd5b6000600282049050600182168061214b57607f821691505b60208210810361215e5761215d612104565b5b50919050565b7f53796d626f6c2063616e6e6f7420626520656d70747900000000000000000000600082015250565b600061219a601683611aea565b91506121a582612164565b602082019050919050565b600060208201905081810360008301526121c98161218d565b9050919050565b7f416e616c79737420766965772063616e6e6f7420626520656d70747900000000600082015250565b6000612206601c83611aea565b9150612211826121d0565b602082019050919050565b60006020820190508181036000830152612235816121f9565b9050919050565b7f536b657074696320766965772063616e6e6f7420626520656d70747900000000600082015250565b6000612272601c83611aea565b915061227d8261223c565b602082019050919050565b600060208201905081810360008301526122a181612265565b9050919050565b7f446567656e20766965772063616e6e6f7420626520656d707479000000000000600082015250565b60006122de601a83611aea565b91506122e9826122a8565b602082019050919050565b6000602082019050818103600083015261230d816122d1565b9050919050565b7f436f6e73656e7375732063616e6e6f7420626520656d70747900000000000000600082015250565b600061234a601983611aea565b915061235582612314565b602082019050919050565b600060208201905081810360008301526123798161233d565b9050919050565b7f436f6e666964656e6365206d75737420626520312d3130300000000000000000600082015250565b60006123b6601883611aea565b91506123c182612380565b602082019050919050565b600060208201905081810360008301526123e5816123a9565b9050919050565b60008190508160005260206000209050919050565b60006020601f8301049050919050565b600082821b905092915050565b60006008830261244e7fffffffffffffffffffffffffffffffffffffffffffffffffffffffffffffffff82612411565b6124588683612411565b95508019841693508086168417925050509392505050565b6000819050919050565b600061249561249061248b84611866565b612470565b611866565b9050919050565b6000819050919050565b6124af8361247a565b6124c36124bb8261249c565b84845461241e565b825550505050565b600090565b6124d86124cb565b6124e38184846124a6565b505050565b5b81811015612507576124fc6000826124d0565b6001810190506124e9565b5050565b601f82111561254c5761251d816123ec565b61252684612401565b81016020851015612535578190505b61254961254185612401565b8301826124e8565b50505b505050565b600082821c905092915050565b600061256f60001984600802612551565b1980831691505092915050565b6000612588838361255e565b9150826002028217905092915050565b6125a18261187f565b67ffffffffffffffff8111156125ba576125b9611bfd565b5b6125c48254612133565b6125cf82828561250b565b600060209050601f83116001811461260257600084156125f0578287015190505b6125fa858261257c565b865550612662565b601f198416612610866123ec565b60005b8281101561263857848901518255600182019150602085019450602081019050612613565b868310156126555784890151612651601f89168261255e565b8355505b6001600288020188555050505b505050505050565b600060a08201905061267f6000830188611a53565b81810360208301526126918187611afb565b905081810360408301526126a58186611afb565b90506126b46060830185611a53565b6126c16080830184611b34565b9695505050505050565b7f436f756e74206d7573742062652067726561746572207468616e203000000000600082015250565b6000612701601c83611aea565b915061270c826126cb565b602082019050919050565b60006020820190508181036000830152612730816126f4565b9050919050565b600061274282611866565b915061274d83611866565b925082820190508082111561276557612764612072565b5b92915050565b600061277682611866565b91507fffffffffffffffffffffffffffffffffffffffffffffffffffffffffffffffff82036127a8576127a7612072565b5b600182019050919050565b7f44656261746520646f6573206e6f742065786973740000000000000000000000600082015250565b60006127e9601583611aea565b91506127f4826127b3565b602082019050919050565b60006020820190508181036000830152612818816127dc565b905091905056fea2646970667358221220331ec1cefe6b5dfdf09b81b519b74eaa70fca9c2a5598e1aafd126c9f09ee3f664736f6c63430008140033",
  "linkReferences": {},
  "deployedLinkReferences": {}
}